:10000000002D002079440000179E00006544000088
:1000100065440000654400006544000000000000E5
:100020000000000000000000000000002546000065
:100030006544000000000000F14500006544000038
:10004000A9470000A9470000A9470000A9470000F0
:10005000A9470000A9470000A9470000A9470000E0
:10006000A9470000A9470000A9470000A9470000D0
:10007000A9470000A9470000A9470000A9470000C0
:10008000A9470000A9470000A9470000A9470000B0
:10009000A9470000A9470000A9470000A9470000A0
:1000A000A9470000A9470000A9470000A947000090
:1000B000A9470000A9470000A9470000A947000080
:1000C000A9470000A9470000A9470000A947000070
:1000D000A9470000A9470000A9470000A947000060
:1000E000A9470000A9470000A9470000A947000050
:1000F000A9470000A9470000A9470000A947000040
:1001000001F0FF01102A2BDB10F0070F08D010F8C8
:10011000013B013A8B422DD010F0070F42B3F6D1CC
:10012000F0B441EA012141EA014122F007047FF0E5
:1001300000070023F0E80256083C85EA010586EA3C
:10014000010685FA47F5A3FA87F586FA47F6A5FA78
:1001500087F68EB9EED1F0BC01F0FF0102F0070284
:1001600032B110F8013B013A83EA010313B1F8D12F
:100170000020704701387047002D06BF3546033810
:10018000073815F0010F07D1013015F4807F02BF49
:10019000013015F4C03F0130F0BC0138704700BF9A
:1001A00081F0004102E000BF83F0004330B54FEA28
:1001B00041044FEA430594EA050F08BF90EA020F95
:1001C0001FBF54EA000C55EA020C7FEA645C7FEA28
:1001D000655C00F0E2804FEA5454D4EB5555B8BF4B
:1001E0006D420CDD2C4480EA020281EA030382EABC
:1001F000000083EA010180EA020281EA0303362D4E
:1002000088BF30BD11F0004F4FEA01314FF4801C20
:100210004CEA113102D0404261EB410113F0004F32
:100220004FEA03334CEA133302D0524263EB4303E9
:1002300094EA050F00F0A780A4F10104D5F1200E87
:100240000DDB02FA0EFC22FA05F2801841F10001E2
:1002500003FA0EF2801843FA05F359410EE0A5F1B6
:1002600020050EF1200E012A03FA0EFC28BF4CF0E7
:10027000020C43FA05F3C01851EBE37101F000459D
:1002800007D54FF0000EDCF1000C7EEB00006EEBAA
:100290000101B1F5801F1BD3B1F5001F0CD3490834
:1002A0005FEA30004FEA3C0C04F101044FEA44528B
:1002B00012F5800F80F09A80BCF1004F08BF5FEA12
:1002C000500C50F1000041EB045141EA050130BDF2
:1002D0005FEA4C0C404141EB0101013C28BFB1F504
:1002E000801FE9D291F0000F04BF01460020B1FA4F
:1002F00081F308BF2033A3F10B03B3F120020CDA22
:100300000C3208DD02F1140CC2F10C0201FA0CF0FF
:1003100021FA02F10CE002F11402D8BFC2F1200C64
:1003200001FA02F120FA0CFCDCBF41EA0C0190401A
:10033000E41AA2BF01EB0451294330BD6FEA040463
:100340001F3C1CDA0C340EDC04F11404C4F120024E
:1003500020FA04F001FA02F340EA030021FA04F360
:1003600045EA030130BDC4F10C04C4F1200220FAB7
:1003700002F001FA04F340EA0300294630BD21FAF5
:1003800004F0294630BD94F0000F83F4801306BFBB
:1003900081F480110134013D4EE77FEA645C18BFAF
:1003A0007FEA655C29D094EA050F08BF90EA020F46
:1003B00005D054EA000C04BF1946104630BD91EA3E
:1003C000030F1EBF0021002030BD5FEA545C05D141
:1003D0004000494128BF41F0004130BD14F5800480
:1003E0003CBF01F5801130BD01F0004545F0FE41F4
:1003F00041F470014FF0000030BD7FEA645C1ABF29
:10040000194610467FEA655C1CBF0B46024650EA5F
:10041000013406BF52EA033591EA030F41F400218B
:1004200030BD00BF90F0000F04BF0021704730B511
:100430004FF4806404F132044FF000054FF00001E6
:1004400050E700BF90F0000F04BF0021704730B5A7
:100450004FF4806404F1320410F0004548BF40427C
:100460004FF000013EE700BF42004FEAE2014FEAD1
:1004700031014FEA02701FBF12F07F4393F07F4FAC
:1004800081F06051704732F07F4208BF704793F0AF
:100490007F4F04BF41F40021704730B54FF46074C2
:1004A00001F0004521F000411CE700BF50EA0102C5
:1004B00008BF704730B54FF000050AE050EA01026E
:1004C00008BF704730B511F0004502D5404261EBDE
:1004D00041014FF4806404F132045FEA915C3FF41F
:1004E000D8AE4FF003025FEADC0C18BF03325FEABC
:1004F000DC0C18BF033202EBDC02C2F1200300FA6D
:1005000003FC20FA02F001FA03FE40EA0E0021FA91
:1005100002F11444BDE600BF70B54FF0FF0C4CF47F
:10052000E06C1CEA11541DBF1CEA135594EA0C0F31
:1005300095EA0C0F00F0DEF82C4481EA030621EA6C
:100540004C5123EA4C5350EA013518BF52EA0335A7
:1005500041F4801143F4801338D0A0FB02CE4FF059
:100560000005E1FB02E506F00042E0FB03E54FF089
:100570000006E1FB03569CF0000F18BF4EF0010E81
:10058000A4F1FF04B6F5007F64F5407404D25FEA7D
:100590004E0E6D4146EB060642EAC62141EA555130
:1005A0004FEAC52040EA5E504FEACE2EB4F1FD0C72
:1005B00088BFBCF5E06F1ED8BEF1004F08BF5FEAF0
:1005C000500E50F1000041EB045170BD06F00046A2
:1005D00046EA010140EA020081EA0301B4EB5C044F
:1005E000C2BFD4EB0C0541EA045170BD41F4801147
:1005F0004FF0000E013C00F3AB8014F1360FDEBF6C
:10060000002001F0004170BDC4F10004203C35DA47
:100610000C341BDC04F11404C4F1200500FA05F3CA
:1006200020FA04F001FA05F240EA020001F000426B
:1006300021F0004110EBD37021FA04F642EB0601E1
:100640005EEA430E08BF20EAD37070BDC4F10C040B
:10065000C4F1200500FA04F320FA05F001FA04F2CF
:1006600040EA020001F0004110EBD37041F10001BB
:100670005EEA430E08BF20EAD37070BDC4F12005C6
:1006800000FA05F24EEA020E20FA04F301FA05F22E
:1006900043EA020321FA04F001F0004121FA04F2D6
:1006A00020EA020000EBD3705EEA430E08BF20EAA6
:1006B000D37070BD94F0000F0FD101F000464000E0
:1006C00041EB010111F4801F08BF013CF7D041EA62
:1006D000060195F0000F18BF704703F00046520066
:1006E00043EB030313F4801F08BF013DF7D043EA37
:1006F0000603704794EA0C0F0CEA135518BF95EAED
:100700000C0F0CD050EA410618BF52EA4306D1D173
:1007100081EA030101F000414FF0000070BD50EA92
:10072000410606BF1046194652EA430619D094EA1C
:100730000C0F02D150EA013613D195EA0C0F05D106
:1007400052EA03361CBF104619460AD181EA03015A
:1007500001F0004141F0FE4141F470014FF0000012
:1007600070BD41F0FE4141F4780170BD70B54FF0AD
:10077000FF0C4CF4E06C1CEA11541DBF1CEA13552D
:1007800094EA0C0F95EA0C0F00F0A7F8A4EB05040F
:1007900081EA030E52EA03354FEA013100F0888006
:1007A0004FEA03334FF0805545EA131343EA1263CF
:1007B0004FEA022245EA111545EA10654FEA002684
:1007C0000EF000419D4208BF964244F1FD0404F53D
:1007D000407402D25B084FEA3202B61A65EB030599
:1007E0005B084FEA32024FF480104FF4002CB6EB56
:1007F000020E75EB030E22BFB61A754640EA0C00D6
:100800005B084FEA3202B6EB020E75EB030E22BF15
:10081000B61A754640EA5C005B084FEA3202B6EB56
:10082000020E75EB030E22BFB61A754640EA9C0015
:100830005B084FEA3202B6EB020E75EB030E22BFE5
:10084000B61A754640EADC0055EA060E18D04FEAA3
:10085000051545EA16754FEA06164FEAC30343EA43
:1008600052734FEAC2025FEA1C1CC0D111F4801F10
:100870000BD141EA00014FF000004FF0004CB6E709
:1008800011F4801F04BF01430020B4F1FD0C88BFA8
:10089000BCF5E06F3FF6AFAEB5EB030C04BFB6EBB3
:1008A000020C5FEA500C50F1000041EB045170BDA6
:1008B0000EF0004E4EEA113114EB5C04C2BFD4EBD3
:1008C0000C0541EA045170BD41F480114FF0000E57
:1008D000013C90E645EA060E8DE60CEA135594EAD3
:1008E0000C0F08BF95EA0C0F3FF43BAF94EA0C0FD6
:1008F0000AD150EA01347FF434AF95EA0C0F7FF44B
:1009000025AF104619462CE795EA0C0F06D152EA9E
:1009100003353FF4FDAE1046194622E750EA410682
:1009200018BF52EA43067FF4C5AE50EA41047FF493
:100930000DAF52EA43057FF4EBAE12E74FF0FF3CF8
:1009400006E000BF4FF0010C02E000BF4FF0010CC9
:100950004DF804CD4FEA410C7FEA6C5C4FEA430C42
:1009600018BF7FEA6C5C1BD001B050EA410C0CBF91
:1009700052EA430C91EA030F02BF90EA020F0020F3
:10098000704710F1000F91EA030F58BF994208BF5A
:1009900090422CBFD8176FEAE37040F00100704717
:1009A0004FEA410C7FEA6C5C02D150EA013C07D16E
:1009B0004FEA430C7FEA6C5CD6D152EA033CD3D0B9
:1009C0005DF8040B704700BF8446104662468C46B3
:1009D0001946634600E000BF01B5FFF7B7FF0028E6
:1009E00048BF10F1000F01BD4DF808EDFFF7F4FF0F
:1009F0000CBF012000205DF808FB00BF4DF808ED9A
:100A0000FFF7EAFF34BF012000205DF808FB00BFBC
:100A10004DF808EDFFF7E0FF94BF012000205DF8DE
:100A200008FB00BF4DF808EDFFF7CEFF94BF012093
:100A300000205DF808FB00BF4DF808EDFFF7C4FF8C
:100A400034BF012000205DF808FB00BF4FEA410CD5
:100A50007FEA6C5C02D150EA013C0AD14FEA430CB8
:100A60007FEA6C5C02D152EA033C02D14FF00000F5
:100A700070474FF0010070474FEA410212F5001233
:100A800015D211D56FF47873B3EB625212D94FEAD5
:100A9000C12343F0004343EA505311F0004F23FABF
:100AA00002F018BF404270474FF00000704750EA14
:100AB000013005D111F0004008BF6FF000407047D1
:100AC0004FF00000704700BF53B94AB9002908BF72
:100AD00000281CBF4FF0FF314FF0FF3000F00CB882
:100AE000ADF1080C6DE904CE00F010F8DDF804E07B
:100AF000DDE9022304B07047704700BF034613F8D6
:100B0000012B002AFBD1181A013870472DE9F04754
:100B100086468C460846089E154674461946002BA4
:100B200040F0C2808542B2FA82F245D94AB1C2F1A0
:100B3000200300FA02FC2EFA03F3954043EA0C0C62
:100B400094404FEA154EA8B2BCFBFEF8230C0EFBF6
:100B500018CC08FB00F943EA0C43994528D9EB1857
:100B600008F1FF3704D2994502D9A8F102072B44B6
:100B7000A3EB0903A4B2B3FBFEFC0EFB1C330CFB7E
:100B800000F044EA0344A04214D92C190CF1FF33BD
:100B900004D2A04202D9ACF102032C44241A43EA45
:100BA00007401EB1D440002334607360BDE8F08775
:100BB0004746DDE76346F1E792BB431B01214FEA5D
:100BC000154EAFB2B3FBFEFC200C0EFB1C330CFB2E
:100BD00007F840EA0343984562D9EB180CF1FF305F
:100BE00004D2984502D9ACF102002B44A3EB0803D0
:100BF000A4B2B3FBFEFC0EFB1C330CFB07F744EA6C
:100C00000344A7424ED92C190CF1FF3304D2A7425A
:100C100002D9ACF102032C44E41B43EA0040C0E7D4
:100C2000C2F1200320FA03F1954090402EFA03F31D
:100C300003434FEA154EAFB2B1FBFEFC0EFB1C1096
:100C4000190C0CFB07F841EA0041884504FA02F44C
:100C500022D969180CF1FF3004D2884502D9ACF1D1
:100C600002002944A1EB08019BB2B1FBFEFC0EFB84
:100C70001C110CFB07F743EA01439F420ED9EB1806
:100C80000CF1FF3104D29F4202D9ACF102012B4496
:100C9000DB1B41EA004192E76046E3E76146F7E784
:100CA0006046A3E76346B7E7834206D916B9002139
:100CB00008467BE7C6E900E0F9E7B3FA83F78FB9A6
:100CC000834201D3724508D8BEEB020460EB0303F4
:100CD00001209C461EB9002168E73846FAE7C6E9BC
:100CE000004CF8E7C7F1200CBB4022FA0CF41C437F
:100CF0002EFA0CF120FA0CF3B84001434FEA1449E4
:100D00000EFA07F5B3FBF9F81FFA84FE09FB183059
:100D10000B0C08FB0EFA43EA00439A4502FA07F26D
:100D200040D9E31808F1FF3004D29A4502D9A8F15E
:100D300002002344A3EB0A0389B2B3FBF9F809FBD1
:100D4000183308FB0EFE41EA03418E452CD9611889
:100D500008F1FF3304D28E4502D9A8F102032144E1
:100D600043EA0040A0FB0298A1EB0E014145CE46AC
:100D7000434602D306D14D4504D2B9EB020E68EBCF
:100D800004030138002EA6D0B5EB0E0261EB03017F
:100D900001FA0CFC22FA07F34CEA0303F940C6E916
:100DA000003198E74046C5E74346D9E70000000018
:100DB0002DE9F04F476A97B014461D46CDE904452A
:100DC000239E83467FB9102006F008FE0246CBF82A
:100DD000240020B9A24BEA21A24807F047FDC0E950
:100DE00001770760C760DBF82430196859B15A6889
:100DF0004A60012393408B60584607F05FFADBF8A6
:100E0000243000221A602B1EB9BF23F00043059343
:100E100000233360059F944BBCBF01223260BB436B
:100E200019D1229A42F20F731360C7F313032343BD
:100E300000F0E285249B53B98C4B21E08C4B089346
:100E40000833249A1360089817B0BDE8F08F874BD9
:100E500008930333F5E7DDE90423CDE90C23DDE94D
:100E60000C0100220023FFF7BFFD804650B1229AFB
:100E700001231360249B13B1249A7E4B13607E4B95
:100E80000893E0E714AB019315AB00935846DDE9F6
:100E90000C2307F093FCC7F30A560390002E7AD078
:100EA0000D9BCDF84C80C3F31303DDE90C0143F037
:100EB0007F5343F44013A6F2FF36194600226F4BCE
:100EC000FFF772F960A3D3E90023FFF725FB60A3C6
:100ED000D3E90023FFF76AF9044630460D46FFF7D1
:100EE000B1FA5DA3D3E90023FFF716FB02460B46D8
:100EF00020462946FFF75AF904460D46FFF7BCFD88
:100F000000220746002320462946FFF777FD40B11F
:100F10003846FFF797FA22462B46FFF765FD00B9E2
:100F2000013F162F54D8564B03EBC703D3E90023D8
:100F3000DDE90C01FFF762FD00284BD0013F0023E3
:100F40001293149B9B1B5A1E45BFC3F101030693CA
:100F5000002300230A9254BF06930A93002F3BDB21
:100F60000A9B0F973B440A9300230B93209B092B6A
:100F700000F28A80052BC4BF043B2093209BA3F181
:100F80000203CCBF00240124032B00F28880DFE899
:100F900003F02B383657DDE914631E4406F2324362
:100FA000202BC1BFC3F140039F4006F2124324FA35
:100FB00003F3D6BFC3F1200347EA030004FA03F0AA
:100FC000FFF730FA0122A1F1F873013E139274E7A2
:100FD0000123B5E71290B4E7069BDB1B06937B4227
:100FE0000B9300230F93C1E700230E93219B002B4B
:100FF00058DC0123099399461A4621920CE00123FB
:10100000F3E700230E93219BFB1803F101090993D9
:101010004B46012BB8BF0123DBF82400002104223A
:1010200002F114059D4241D94160584607F006F986
:10103000089000283DD1134B02464FF4D571CBE602
:101040000123DFE7AFF3008061436F63A787D23FDF
:10105000B3C8608B288AC63FFB799F501344D33FA7
:1010600020C3000037C300000000F07F1CC3000055
:1010700013C3000047B5000046B500000000F83F6C
:10108000C0AF0000ABC300000124002320930E94E6
:101090004FF0FF330993994600221223ADE7012355
:1010A0000E93F5E7219B09939946B5E7013152006C
:1010B000B6E7DBF82430089A1A60B9F10E0F6FD842
:1010C000002C6DD0002F36DDA14B07F00F0203EB93
:1010D000C203D3E90034F805CDE910344FEA2714F0
:1010E00017D59C4BDDE90C01D3E90823FFF73EFB44
:1010F000CDE9040104F00F044FF00308954D5CB9ED
:10110000DDE91023DDE90401FFF730FBCDE904013F
:101110002BE04FF00208F1E7E10709D5DDE9100106
:10112000D5E90023FFF7F8F9CDE9100108F101082E
:1011300064100835E3E700F007817C42844B854D5D
:1011400004F00F0203EBC203D3E90023DDE90C0135
:10115000FFF7E2F9CDE90401241100234FF0020862
:10116000002C40F0E580002BD0D1129BDDE9044536
:10117000002B00F04C81784B002220462946FFF7D7
:101180003DFC002800F04381B9F1000F00F03F81E1
:10119000099B002B00F3E480DDE90C34CDE9043435
:1011A000159B002B02DB0E2F40F342820E9A002A81
:1011B00040F067820B9CDDF818800025B8F1000F25
:1011C0000DD00A9B002B0ADD4345069AA8BF434673
:1011D000D21A06920A9AA8EB0308D31A0A930B9B19
:1011E0000BB30E9B002B00F0A682002C00F0A18216
:1011F00029462246584607F089F9039A01460546D2
:10120000584607F0D9F803990646584607F056F8AD
:101210000B9B1B1B0B9300F091820B9A3146584697
:1012200007F074F903900121584607F0AFF80F9BBF
:101230000446002B00F084821A460146584607F007
:1012400065F9209B012B044603DC049B002B00F076
:101250007C820026236904EB8303186909F067FB8D
:101260000F96C0F120000A9B184410F01F0000F0F8
:101270009182C0F12003042B40F38182069BC0F1D0
:101280001C00034406930A9B034480440A93069B74
:10129000002B05DD03991A46584607F091F9039093
:1012A0000A9B002B05DD21461A46584607F088F9AF
:1012B0000446129B002B00F076820398214609F029
:1012C00085FB002880F26F82002303990A2258468A
:1012D00007F016F80E9B03907E1E002B00F05C8238
:1012E000002329460A22584607F00AF8099B002BDA
:1012F000054603DC209B022B00F35E82B8F1000F51
:1013000005DD29464246584607F05AF905460F9B27
:10131000002B00F0D0826968584606F08FFF074620
:10132000002840F07F820D4B024640F2EA2153E54F
:10133000E20706D5D5E90023FFF7EEF808F101082A
:101340000123641008350BE74FF002080DE700BFDA
:10135000C0AF000098AF00000000F03FABC300003A
:101360002046AD4B00222946FFF7D6F8CDE904010F
:10137000099C7E1E08F101084046FFF763F8DDE98D
:101380000423FFF7C9F8A54B0022FEF70FFFA1F1D8
:101390005073CDE910011193002C3BD1DDE904011C
:1013A0009F4B0022FEF700FF02460B46CDE90423C7
:1013B000DDE91023FFF740FB002840F05781DDE90D
:1013C000102101F10043DDE90401FFF717FB0028BC
:1013D0003FF4E2AE00242546219BDDF820A0DE4349
:1013E0004FF000082146584606F068FF002D00F037
:1013F000A980B8F1000F05D0A84503D04146584652
:1014000006F05CFF2946584606F058FF9AE03E4633
:101410004C46B1E7834B03EBC40353E90201089B3D
:101420001C440E9B002B4AD002460B4600207E49EE
:10143000FFF79CF9DDE91023FEF7B6FECDE91001B8
:10144000DDF820A0DDE90401FFF716FB0546FEF7F5
:10145000F9FF02460B46DDE90401FEF7A5FE303533
:10146000CDE9040102460B460AF8015BDDE91001F3
:10147000FFF7E2FA002865D1DDE904236B4900207B
:10148000FEF792FE02460B46DDE91001FFF7D4FAA3
:10149000002840F00D81A24500F0EA80DDE910014E
:1014A0005D4B0022FFF738F85B4BCDE910010022BD
:1014B000DDE90401FFF730F8CDE90401C2E7DDE919
:1014C0001023FFF729F8CDE91001DDF820A0A04690
:1014D000DDE90401FFF7D0FA0546FEF7B3FF024647
:1014E0000B46DDE90401FEF75FFE30350AF8015BCB
:1014F00002460B46A245CDE904234FF0000223D15A
:10150000494BDDE91001FEF751FE02460B46DDE9CD
:101510000401FFF791FA002840F0CA80DDE91023AA
:1015200041490020FEF740FE02460B46DDE904017A
:10153000FFF764FA70B1C24608F1FF381AF8013CAF
:10154000302BF8D0374655E0334BFEF7E5FFCDE9B9
:101550000401BDE7DDE90C34CDE90434159B002B13
:10156000FFF628AE0E2F3FF725AE2E4B03EBC70339
:10157000D3E90034CDE90634219B002B02DAB9F11E
:10158000000F64D0DDE90445DDF820A0DDE9062385
:1015900020462946FFF7EAF8FFF76EFA0646FEF7FF
:1015A00051FFDDE90623FEF7B7FF02460B46204652
:1015B000294606F13004FEF7F7FD0AF8014B089CB6
:1015C000AAEB0404A14502460B4640F08280FEF7D8
:1015D000EDFDDDE9062304460D46FFF72DFA002850
:1015E00065D1DDE9062320462946FFF7FDF908B15C
:1015F000F3075CD40399584606F060FE00238AF88E
:101600000030229B01371F60249B002B3FF41BAC52
:10161000C3F800A017E400BF0000244000001C40F5
:1016200000001440C0AF00000000E03F0000F03FA9
:10163000A24B03EBC703D3E90034CDE90634219B69
:10164000002B9FDAB9F1000F9CDC7FF4C3AE9C4BFA
:101650000022DDE90601FEF75FFFDDE90423FFF765
:10166000E1F9044600287FF4B5AE3E462546B4E0D5
:10167000DDE90C34CDE90434159B002B01DB0E2F82
:10168000D6DD209A012A36DC139A82B303F2334363
:101690000B9CDDF81880069A1A4406920A9A0121DA
:1016A0001A4458460A9206F071FE054686E53E4603
:1016B00053469A4613F8012D392A06D1089A9A42C0
:1016C000F7D10899302201360A701A7801321A705F
:1016D00038E77C4B0022FEF71FFF00220023044660
:1016E0000D46FFF781F900283FF450AF82E7149BC5
:1016F000C3F13603CCE70B9B09F1FF34A34208DBAF
:10170000B9F1000FA3EB04040EDBDDF818804B46A3
:10171000C1E70B9B0F9A0B94E31A1A44DDF818806B
:101720000F924B460024B6E7069BA3EB0908002363
:10173000B1E7039E71E50B9A039970E5039672E594
:10174000209B012B17DC049BABB9059BC3F3130350
:101750009BB9059B23F00046360D360536B1069B36
:10176000013306930A9B01330A9301260F9B002B3A
:101770007FF470AD0F96012075E50026F6E73FF483
:1017800086AD069A1C331A4406920A9A1A44984463
:101790000A927CE50346F4E7099B002B2BDC209B97
:1017A000022B09DC27E0B9F1000F1DDC209B022B86
:1017B0001ADDCDF824903E46099B002B7FF40CAE39
:1017C00021460522584606F09BFD01460446039833
:1017D00009F0FCF800287FF7FFADDDF820A03123E9
:1017E0000AF8013B0136FBE50E9BCDF824903E46FE
:1017F000002B7FF483AD089F0398214609F00FF872
:1018000000F1300907F8019B089B099AFB1A9A42DC
:1018100040F3CB80039900230A22584606F070FD5E
:101820000390E9E72A690232920005F10C010C30BD
:1018300008F0C5FE01223946584606F0C1FE089B55
:1018400003F1010ADDE9082313440A93049B03F022
:101850000103A8460B9305460AF1FF33214603987E
:10186000069308F0DCFF4146099000F13009039827
:1018700009F0ACF82A4621460746584606F00CFF08
:10188000C268014602B3584606F018FD002F3ADA46
:1018900003990122584606F093FE2146039009F071
:1018A00095F8002803DC29D119F0010F26D0B9F1F1
:1018B000390F1DD132E02846C1E700BFC0AF00009C
:1018C00000001440000024400E90039809F07EF8B8
:1018D0000E990C90584606F0F1FC0C9A5ABB209BCE
:1018E00053B90B9B43B9B9F1390F17D0002F05DD60
:1018F000099B03F1310901E0002F2ADADDF818A075
:101900000AF8019B6EE5209B3B4304D1049B03F046
:101910000103002BBCD0B9F1390F36D1069F392312
:1019200007F8013BBA46013F1AF8013C392B5BD05E
:1019300001333B7056E5002F06DB209B3B4306D16D
:10194000049B03F0010313B9002AA1DCD6E7002AA7
:10195000E1DC0A9B0AF8019C534557462FD00399B6
:1019600000230A22584606F0CBFCA84503904FF00E
:1019700000034FF00A02414658460BD106F0C0FC66
:10198000804605460AF1010A66E7DDF818A009F16C
:101990000109B5E706F0B4FC2946804600230A2277
:1019A000584606F0ADFC0546ECE7099B002BC8BF86
:1019B0001F46089BD8BF01271F444FF0000803991A
:1019C0000122584606F0FCFD2146039008F0FEFF78
:1019D0000028A7DC02D119F0010FA3D1BA4617F8ED
:1019E000013D302BFAD0FDE4089BBB429AD1089A06
:1019F000312301361370F5E4249B002B7FF41EAADB
:101A0000014BFFF73DBA00BF13C3000001230A4694
:101A100003FA00F1074B18690068014218BF82F011
:101A200001021AB19B68DB68024818479B681B6972
:101A3000FAE700BF70AD000070B5484807F024FD1C
:101A4000474808F0D5FB20B94648BDE8704007F08C
:101A50001BBD454807F018FD444808F0C9FB08B90C
:101A60004348F2E7434807F00FFD434807F00CFDF9
:101A70003E484FF4C0220B2107F0CBFA3B484FF40D
:101A8000C0220F2107F0C5FA4FF4C02237480E21BB
:101A900007F0BFFA01210B20FFF7B8FF01210F204B
:101AA000FFF7B4FF01210E20FFF7B0FF642007F01D
:101AB000BCFA00210B20FFF7A9FF00210F20FFF740
:101AC000A5FF00210E20FFF7A1FF642007F0ADFA6B
:101AD0002A4807F0D9FC2A4807F0D6FC294A2048B2
:101AE0001D2107F096FA274A1D48032107F091FAB5
:101AF000244A1B481C2107F08CFA1D21184807F0C6
:101B000074FA03210646164807F06FFA1C210546B1
:101B1000134807F06AFA2A460346044631461A4833
:101B200007F0B2FC012E17D1012D15D1012C13D1D4
:101B3000164807F0A9FC164807F0A6FC154807F060
:101B4000A3FC154807F0A0FC144807F09DFC1448BE
:101B500007F09AFC134878E71348F9E72CB3000024
:101B600088AD00004FB300006FB3000070AD0000FF
:101B700086B30000A6B30000BDB30000DDB30000D3
:101B8000FFB30000100001001FB400003AB40000D1
:101B90007BB400008FB40000A4B40000B2B4000015
:101BA000D7B4000011B50000ECB400002DE9F84FE7
:101BB0003B483C4EDFF8F090DFF8F0A0DFF8F08013
:101BC00007F062FC00271D250B242B4622463146D8
:101BD000E4B2484607F058FCEDB221464FF4C0226B
:101BE000504607F016FA334A2946404607F011FAE4
:101BF0002946404607F0F9F9014683462E4807F08A
:101C000043FC01212046FFF701FF322007F00DFAC7
:101C100000212046FFF7FAFE322007F006FA294697
:101C2000404607F0E2F901460446244807F02CFC40
:101C3000BBF1010F25D1012C26D13146204807F0F8
:101C400023FC204807F020FC1F4807F01DFC1F481C
:101C500007F01AFC1E4807F017FC1E4807F014FC9A
:101C60001D4807F011FC0137032F14D0012F04D0B9
:101C70001A4E02271C250E24A7E7194E03250F2410
:101C8000A3E7BBF1000F01D0002CECD11548314681
:101C900007F0FAFBE7E7BDE8F84F134807F0F4BB9D
:101CA00048B500003FB5000069B5000070AD000008
:101CB00088AD0000100001009EB50000B6B5000020
:101CC000D0B5000006B6000018B600003EB6000011
:101CD00057B600007BB60000A3B6000036B5000082
:101CE0002DB50000C1B60000F4B600002DE9F04F9C
:101CF00089B06648664D0024CDE9054407944FF449
:101D0000C02607F0C1FBFFF797FEFFF74FFF0B233D
:101D1000CDE901365F49604B604800951D2200F017
:101D2000E3F8011E07DA5E4807F0AEFB4FF0FF3024
:101D300009B0BDE8F08F0F23CDE90053554959484C
:101D4000029603F10113032200F0CEF8011E01DA1E
:101D50005548E9E70E23CDE900534E494E4B534811
:101D600002961C2200F0C0F8011EDFF8408101DA63
:101D70004F48D9E750214948DFF83891DFF838A1BA
:101D800000F0EAF85021474800F0E6F850214046BC
:101D900000F0E2F8494807F077FB494807F074FB88
:101DA000484807F071FB3D4BDFF81CB1197A186801
:101DB00007F01BF93B4B0746197A186807F015F92D
:101DC00098F808100646D8F8000007F00EF9D9F880
:101DD0000030BB42054625D03C482B4632463946AA
:101DE00007F052FBC9F80070CAF80060CBF8005049
:101DF00067BB374807F048FB05A9284807F09DF95D
:101E0000011E02DA334807F03FFB8EB31DB3079B78
:101E100000932146DDE905232F48651C07F034FBBC
:101E20002C46C0E7DAF80030B342D5D1DBF80030F9
:101E30008342D1D1294A136801331360642293FB92
:101E4000F2F102FB1133002BC6D0D1E76EB1CDB950
:101E50001F4807F019FB07A9144807F06EF9011E87
:101E6000D5DA1F4807F010FBD1E7194807F00CFB43
:101E700006A90C4807F061F9011EC7DA194807F0F6
:101E800003FBC3E70A2007F0D0F88CE71AB700007D
:101E900070AD000088AD000010000100740F00203C
:101EA00046B700005C0F00206FB70000440F002011
:101EB00098B70000C8040020C4040020C1B7000087
:101EC000EDB700000DB80000C004002037B80000D6
:101ED00056B8000074B80000C8B80000400F0020D9
:101EE000ACB8000090B80000F8B505469DF81C603D
:101EF000089F084611461A46069B2DB320B31BB314
:101F0000C5E90003C5E9032729726E7207F09DF841
:101F1000041E05DA0E48214607F0B6FA2046F8BD41
:101F200068683A46314607F090F8041E02DA09481C
:101F30002146F1E743F23430002105F099F845F2EB
:101F40000103AB820024E9E76FF01504E6E700BF68
:101F5000D7B80000F9B8000008B54175024807F08D
:101F600093FA002008BD00BF1AB900002DE9F04F18
:101F700091B08407009302F004030293C2F3C203FA
:101F800003F10103DDF86890039205460E460593C0
:101F900040F0BA81041D30B1072909D86FF01B0049
:101FA00011B0BDE8F08F01F00706341DC6F1080638
:101FB000009B4FF00008591E4FF0040A4FF0FF330A
:101FC0000193CDF810804746C34653460DB1009AA1
:101FD00022600598002800F3E8809848009A824221
:101FE00003D397488242C0F0E080039AA4EB050E29
:101FF00092074FEA9E0000F103810F2F00F2B1809B
:10200000002D00F0058107F140020DEB020C019A52
:102010000CF8200C0CF8102C049801300490E7E028
:102020007A285DD84B280ED8472859D829282DD88A
:10203000252852D054D820287AD02338D0F1000B4C
:102040004BEB000B74E04C382E2849D8DFE800F049
:102050007048484848484848484848484B484848D5
:10206000484848484859484B4B595959704B6D4856
:102070007048184B184848827F4B48484B487F00AF
:1020800000204FF0000B4FF0040A38E02A38C0B2AD
:10209000012202FA00F010EA0E0F49D110F0625C42
:1020A0002FD110EA020B43D06046013C5444B4FBEC
:1020B000FAF40AFB04F4002D61D0A3EB050CA44450
:1020C000B4453FF66BAF002868D1042B47D159F8CF
:1020D000043B2360043404232AE0019A013A01926C
:1020E0004FF0000B24E011F8010C6C2834D111F8EA
:1020F000023C00206C2B8346C5D14FF0080A5346A2
:10210000D3E709F1070929F007090734F9E802AB19
:1021100024F0070435B106982044B0423FF63EAFA4
:10212000C4E900AB08344FF0000B4FF0080A5346E7
:1021300011F8010F002878D0BBF1000F7FF470AFC9
:102140002528F5D1019B013301934FF0010B4FF08E
:10215000040AECE7584694E700208346A5E7082BDD
:1021600002D06FF015001BE709F1070929F00709F4
:10217000F9E80223C4E9002308340823D8E768B942
:10218000042B02D109F10409A4E7082BE9D109F1D4
:10219000070929F0070909F10809EDE7059A013A4D
:1021A000059259F8042B009210E7039A900720D566
:1021B000A4EB050E4FEA9E004FF0010CBEF5007F28
:1021C000CFD20F2FCDD8F5B107F140020DEB020EA3
:1021D000C0B2019A0EF8200C0EF8102CBCF1000FC2
:1021E0003FF41AAF60F07F000EF8200C08F10108F0
:1021F0000137C5F10802043406924FF6DA7E97E7FC
:102200004FF0000CDAE7BCF1000F01D00136EFE728
:10221000029802360028EBD10098CDE90631FEF78E
:102220006DFCDDE906310644E2E7631BB3F5806F20
:1022300097D23DB9A6F10804E018B1E6F0AC000071
:1022400084C40000029A28609B082B709DF810300F
:10225000C2B1EB7085F80280B8F1000F05D008A874
:102260000022C5F1010C97420ED1C5F101030DF119
:1022700020094FF0000A01930DF1300B574512D1A0
:10228000601B8DE66B70E5E710F8013B190608D579
:1022900004EB0C0EB64503F07F033FF67FAE04F867
:1022A000013B0132DFE7B8F1000F03D099F90020BC
:1022B000002A17DB029BD3B11AF80B2004F8012B7C
:1022C0000022019B98182044B0423FF667AE99F86F
:1022D000000004F8010B00990392204608F06FF902
:1022E000039A14440AF1010A09F10109C6E799F8B1
:1022F000002055F822300093029B45F822300098C8
:10230000FEF7FCFB421CDCE76FF00D0048E600BF67
:102310002DE9F04F97B000AF90F802A0D7F880B049
:102320003B62CBF3C0030446FA62BB61894641B904
:10233000457800780AEB800020444D4517D8A0EB83
:102340000409E378FB61BAF1000F02D01BF0010F22
:1023500016D1FB6953BBFB6A1BB13A6A494620465A
:1023600098474D4628465C37BD46BDE8F08F461C71
:102370003046FEF7C3FB0130304409F10109DCE7C8
:10238000237862687A62FA6A9900796104EB8301C2
:10239000002A40F000814D460E4601EB0A094FF03D
:1023A00000084E454CD101EB0A0610E01BF0020F6D
:1023B000D1D023789A007A6162687A62FA6A04EB73
:1023C0008301002A77D14D4601EB0A0690461BF0A7
:1023D000050F0CBF02230123FB62FB6906EB430AD6
:1023E0000BF00203BB625645BCD016F8021B16F870
:1023F000013C54F82390AF4B994502D3AE4B99451D
:1024000036D3BB69002B40D0786A07F006F8002865
:102410003BD0E9468AB06A46A84B53617B6AC2E961
:1024200006314FF400731384A54B42F8103FA548C2
:1024300000234FF4125101F029F9023DCD46D2E7B5
:1024400016F8013BF96254F82300FEF757FBD7F862
:102450008430F96A01304BB1D7F8883098453EBFD7
:10246000D7F8843023F8180008F10108054498E7EC
:10247000BB6923B1786A06F0D0FF0028C9D11BF0F0
:10248000010F05D1FB6AED1AADE7BB6A002BAAD09C
:102490004846FEF733FBD7F8843053B1D7F888307D
:1024A00098453FBFD7F88420431C22F8183008F124
:1024B0000108054497E7BAF1000F72D01BF004063B
:1024C00072D0D046002607F1480052463B61B962FF
:1024D00008F075F8B96A3B6901EB0A02BA62FA6959
:1024E000F9695200FA60BA6A02EB41023A610BF0F4
:1024F0000202BA603A69B96A8A4257D162787A624E
:102500001BF0020F32440CBF4FEA580100211BF0B0
:10251000010FD2B240F09F801BF0040F14BF404661
:102520000020BB616270A070E1703A6A7969FB6A51
:1025300020469847051EFFF615AFBB6923707B6ADE
:102540006370FB69E37041463A6AFB6A84F802A053
:1025500007F148009847B0F10008C0F2B5807B69E8
:102560003A6AA9EB0A01C91AFB68C91AD7E90A0332
:1025700098470028C0F2AA80A84408EB00054FF055
:10258000000B07F1380AB34567D300213A6AFB6AAA
:1025900008469847E6E656464FF0000807F138002F
:1025A00093E75646D04697E7B04695E7BA6A12F8E1
:1025B000021BBA6212F8015C3E4A54F825009042B0
:1025C00002D33D4A90421ED3BA6932B1786A7B6029
:1025D00006F023FF7B6800288CD1BA6802BB08F1A3
:1025E000280207F1300C08F10100944407F1580269
:1025F00052FA80F008F102080CF8101C5FFA88F813
:1026000000F8105C76E7BA693AB1786A7B6006F048
:1026100004FF7B6800287FF46DAF1BF0010F09D029
:1026200006F1280207F13000711C161806F8205C2C
:10263000CEB25FE71BF0040F3FF45CAF08F1280255
:1026400007F1300008F1010102EB000808F8105C06
:102650005FFA81F84EE7002063E71BF80A3087F83D
:10266000373054F82390D7F88430FBB133F81B800F
:102670003A6AFB6A012107F137009847002825DBF9
:102680000544B8F1000F06D14846FEF737FA00F1CD
:1026900001081FFA88F83A6AFB6A4146484698479B
:1026A000002813DB05440BF1010B6CE7D7F884809D
:1026B000DEE700BFF0AC000084C4000057B90000A2
:1026C0000400000138AF000045464BE6054649E6E8
:1026D00030B587B00025CDE903010446009503A974
:1026E0000548059500F06EF8DDE904309842B8BF62
:1026F000255407B030BD00BF65940000F0B5094E09
:10270000016802460A2700200B4601311C78355D1E
:102710006D0701D41360F0BD07FB0043A3F1300047
:10272000F2E700BFE5C100002DE9F84F15469A46D3
:10273000D378234A12F803B06F2B81460F460BF073
:10274000030B2BD026D8582B0CBF10260A26DDF8F9
:1027500028803246002348463946FEF7B5F9092A53
:1027600008F1FF38D4B21ED83034B145E4B277F165
:10277000000788F8004001D3D04511D82B789B067C
:1027800005D5082E15D1AB7843F00803AB70404651
:10279000BDE8F88F03F0F703702BD5E70826D6E7DE
:1027A00081460F46D5E7BBF1010F0CBF37345734D4
:1027B000DBE7102EEBD1AB7843F01003E6E700BF68
:1027C000E5C100002DE9F04F97B08A460390164608
:1027D0001C460025307808B9284656E325280AD03B
:1027E000039B514698470028C0F24F83731C013564
:1027F0000493049EEEE71822002110A807F0EDFED6
:102800007378252B00F0A3800023711C98469E4608
:102810009C4618460F4611F8012B2B2A00F0C68063
:1028200000F2BD80202A00F0C480232A00F0C4807A
:102830002BB19DF8483043F040038DF84830B8F193
:10284000000F05D09DF8483043F020038DF8483044
:10285000BEF1000F05D09DF8483043F010038DF80D
:102860004830BCF1000F05D09DF8483043F0080314
:102870008DF8483028B19DF8483043F004038DF8B6
:1028800048309DF8483003F04401442903D16FF3E8
:1028900086138DF848309DF84830099743F080033F
:1028A0002A2A8DF8483040F08C809DF8493043F05A
:1028B00001038DF849307B1C1A782E2A9DF8492097
:1028C0000CBF0121002161F341028DF849200CD198
:1028D0005A1C09925A782A2A40F083809DF8492090
:1028E00042F004028DF8492002331A786C2A00F075
:1028F000A48000F28680682A00F08C806A2A00F0AA
:10290000A5804C2A00F0AA801A4612F8013B0492D6
:10291000782B9DF849208DF84B3000F217816D2BF4
:1029200000F2A980692B00F21181572B00F2BE80C2
:10293000412B03D0453B022B00F208819DF84A3021
:10294000042262F302038DF84A300123CAE08DF8B5
:102950004B30B31C04939DF84930D90740F1FD80FA
:1029600054F8048BB8F1000F07DA9DF8482042F0C4
:1029700004028DF84820C8F100085A0740F1F6809B
:1029800054F804BBBBF1000F80F2F5809DF849308C
:102990006FF341038DF849304FF0FF3BEBE02D2AF8
:1029A0000DD0302A7FF444AF012333E74FF0010C00
:1029B00030E74FF0010E2DE74FF001082AE7012024
:1029C00028E709A8FFF79AFE099BBB423FF474AFC2
:1029D0009DF848201390C00F60F341028DF8482005
:1029E0006AE709A8FFF78AFE9DF848301490C3F300
:1029F000400242EAD07262F341038DF84830099BED
:102A000073E7742A26D07A2A7FF47EAF9DF8492096
:102A100006210CE05A78682A9DF8492006D1012148
:102A200061F3C6028DF8492002336DE7022161F39C
:102A3000C6028DF84920013366E75A786C2A9DF862
:102A4000492001D10421EBE70321F0E79DF849205B
:102A50000521ECE79DF849200721E8E7BDF848206B
:102A600022F4F04222F0020242F4804242F00202DA
:102A7000ADF84820DFE76E3BD9B201238B4040F22E
:102A800082410B4238D113F0240F52D1DF075DD5BC
:102A90009DF84A30032161F302038DF84A3002F0B9
:102AA0007803A3F14000434243411BE0A3F15801E6
:102AB000C9B2012000FA01F111F4624F7FF43EAF78
:102AC00040F6010739421DD111F4043F3ED09DF874
:102AD0004A3060F3020302F07802402A8DF84A304F
:102AE00034D000239DF84820C2F340010B4363F328
:102AF00041028DF848202EE79DF84A30022161F30B
:102B00000203E8E79DF84A10022002F0780260F321
:102B10000201402A8DF84A1002BF9DF8481041F08A
:102B200001018DF84810632BDBD1131E18BF012360
:102B3000D8E79DF84A30032161F3020312F0780FC1
:102B40008DF84A3014BF01230023CBE79DF84830AD
:102B500043F001038DF84830C3E79DF94820002A6F
:102B6000B4BFDDF84C804FF0FF3806E79F077FF5D4
:102B700013AFDDF850B09DF849100023CDE91333B1
:102B80009DF84A3003F00703012BC1F3C30132D192
:102B9000CB1E042B04D8DFE803F02045452020009D
:102BA000236801294FEAE372CDE910321BD19DF968
:102BB0004030DA17CDE9103204349DF8483013F074
:102BC00003074FD0049B03983246514606F080FC21
:102BD0000028C0F25A8105440BE654F8043BDA178A
:102BE000CDE91032E9E70229E6D11AB243F3C03346
:102BF000CDE91023E0E7022B24D1CB1E042B04D80F
:102C0000DFE803F0181010181800012954F8043BED
:102C10004FF0000214D00229CDE91032CDD19BB281
:102C20001093CAE7073424F00704F4E80223CDE93F
:102C30001023C2E754F8043B109300231193BCE720
:102C4000DBB2CDE7042B08D1073424F00704D4E924
:102C500000230834CDE91023AFE7032BADD154F89E
:102C6000043BDDE79DF84B0078283FF6C2AD6228B3
:102C70001ED8252850D058287FF4BBAD0DF13E0357
:102C80000093DDE910010AAB12AAFFF74DFDBBF17D
:102C9000000F814680F2C280B9F1000F3FF4A9AD68
:102CA0000DF13E06A6EB0903002F7BD0013379E03E
:102CB000633815283FF69DAD01A252F820F000BF01
:102CC000932D0000F12D0000F3270000F3270000F2
:102CD000F3270000F3270000F12D0000F327000088
:102CE000F3270000F3270000F32700003F2E000029
:102CF000172E0000512D0000F3270000F3270000DD
:102D0000292D0000F3270000172E0000F3270000F4
:102D1000F3270000172E0000039B51469847002818
:102D2000C0F2B380013564E5BBF1000FDDF84090DF
:102D30000ADB5946484607F066FDB9F1000F3FF43B
:102D400058AD09EB000620E04846FDF7D7FEF8E74E
:102D50001098002800F087800DF13E060AAB00961F
:102D600012AA0021FFF7E0FCBDF84A3003F0EF03A0
:102D700043F4F04343F01003BBF1000F8146ADF87C
:102D80004A304ADA00283FF434ADA6EB09030027A5
:102D900008E0109B8DF8283000270DF129060DF171
:102DA000280901239DF84A1011F01002069260D004
:102DB0000233139A059213444A0644BF14995B18D0
:102DC000B8F1000F6EDDA8EB03089DF848305807F6
:102DD000C3F3800B66D459065AD53FB1039B5146C5
:102DE00038469847002850DB01355F46302350E0D5
:102DF0001E075CBFC3F300135F01DDE9102348BF6A
:102E00002B27002BBFF63AAF524263EB4303CDE9C9
:102E100010232D2732E7002730E700279DF84810C0
:102E20000DF13E03A3EB09036FF386119B458DF86B
:102E300048107FF631AFABEB030313932CE7109BE5
:102E400007293FF6D6ACDFE801F00C04060C0808B1
:102E50000C0C1D70CDE41D80CBE4EA17C3E90052D1
:102E6000C7E41D60C5E4314E0746A6F105090523F8
:102E700098E7080748BF01339BE718460793514678
:102E8000039B98470028079B04DA17B0BDE8F08F32
:102E90002023C346594600290BF1FF3BEDDC454496
:102EA0006D1AD84637B1039B5146384698470028DB
:102EB000EBDB01359DF84A30DA0601D41B0706D555
:102EC000039B5146302098470028DEDB0135069BE6
:102ED0003BB19DF84B00039B514698470028D4DB3B
:102EE0000135059F2F4406E0039B5146302098474B
:102EF0000028CADB01357B1B002BF5DC0398334629
:102F00004A46514606F0E4FA0028BEDB0544A844D0
:102F1000A8EB0503002B7FF76CAC039B51462020E8
:102F200098470028B1DB0135F2E700BF10BA000076
:102F30002DE9F047058B04462807904611D4022955
:102F400005F0070540F0CC80204606F036FD78B14C
:102F50000138218B042811D8DFE800F0C2106D85FC
:102F6000950001290CBF45F0100545F0200525838B
:102F700088F31188BFF36F8FBDE8F08701F0070A6F
:102F8000AA4500F0A5800027B9463E46A368002B5D
:102F900000F0BC8041F00801218388F31188BFF361
:102FA0006F8FA168002900F0BA800D68002900F039
:102FB000B680D1F80480334652462046C047002DE3
:102FC00076D02B6829461D46F0E701F007035A1F0B
:102FD000012A1BD8002221F00701062B276889B29D
:102FE000C4E9002209D13B4603E0628B01326283CF
:102FF0001B68002BF9D141F002012183204606F025
:10300000DCFC00287AD041F0200176E0042B0AD1C4
:1030100021F0070189B22183204606F0CEFC10B1D1
:1030200041F020012183218B01F0070AAA454FD0EE
:103030000027B946AAE7236921F0070141F00601FC
:10304000062DD3F8009021832DD1B9F1000F3FD088
:1030500041F00801218388F31188BFF36F8F3A494B
:103060002046C84729E021F00701236941F0040107
:1030700089B2042DD3F804902183E6D000273E4680
:103080004FF0040A82E721F00701236941F00501AE
:1030900089B2052DD3F808902183D6D000273E466B
:1030A0004FF0050A72E700273E464FF0060A6DE72B
:1030B0002B4687E7B9F1000FD1D1EFF31188202318
:1030C00083F31288BFF36F8F238B23F008032383CE
:1030D000258BEA062ED525F01003238305F007057E
:1030E0006669218B002EBFF670AF00232768C4E904
:1030F000003321F0070141F001012183218B01F010
:10310000070AAA454FF000097FF440AF002F9CD07A
:1031100041F00801218388F31188BFF36F8F002FDE
:10312000C8D03D68394633465246204606F071FC09
:103130002F46F4E7AB067FF51BAF25F02003238372
:1031400005F0070500E700BF3F9A00002DE9F047B2
:10315000DFF85880044607464FF0010914B9384695
:10316000BDE8F08794FAA4F5B5FA85F509FA05F3F8
:103170002E0108EB05156FEA030A24EA03042B7BF2
:10318000002BEBD058F806301B694BB9464404229B
:1031900073682846196807EA0A0700F063FADDE752
:1031A000284698470028D9D1F0E700BF80AF00003B
:1031B00030B51049104889B0002207F0D0F90F4D02
:1031C0000F4900220023CDE9062300240E23CDE978
:1031D0000334CDE901440B4B00944FF44072284670
:1031E00003F094FC0849284607F0ABF8204609B0E4
:1031F00030BD00BF0D320000480D0020C008002087
:10320000001800201135000011BA0000014803F039
:10321000F5BB00BFAC0800202DE9F04780461F48F1
:103220000F4606F0DAFC0646002830D00025284676
:10323000BDE8F087237B6BB12368DB680BB12046C8
:10324000984723681B69D3B963680422196820462C
:1032500000F008FA013610344C45EBD3B8F1000FFA
:10326000E5D0002DE2D02846FFF770FF0546002F7D
:10327000F7D000214FF4A47003F0FAFEF1E72046E6
:1032800098470028E0D00AFA06F31D43E2E7044C11
:10329000DFF8109005464FF0010ADDE79C0F002093
:1032A00080AF000090AF0000014B53F82000704742
:1032B0009CB0000008B5034608462BB1044A1360D1
:1032C00000F07EFC002008BD6FF01500FBE700BF9A
:1032D000CC04002010B5044C237813B9034803F044
:1032E0008DFB0123237010BDC0170020AC08002007
:1032F00010B504460B4806F070FC5CB1BFF35B8F61
:10330000094B53E8001F013943E80012002AF8D1A5
:10331000BFF35B8F054807F02EF90548BDE8104064
:1033200003F06CBB940F0020980F0020480D002084
:10333000AC0800200020064BBFF35B8F014653E82A
:10334000000F43E80012002AF9D1BFF35B8F7047EA
:10335000940F002070B5FFF7EDFF084C084E0546AE
:10336000B44200D370BD63685B792BB123685B689E
:1033700013B12946204698471034F1E780AF00008A
:1033800090AF000010B5044C0449204606F0B1F996
:10339000034B1C6010BD00BFBC07002088B00000BC
:1033A0008C0F0020084A094808B500231370084A0A
:1033B0001360084A4FF400411360FFF77BFFBDE83C
:1033C0000840FFF7DFBF00BFC1170020D79B0000F8
:1033D000940F0020980F002001460022014800238E
:1033E00006F0A8B9BC070020014806F03EBA00BFAD
:1033F000BC070020024B0146186806F08ABA00BFDD
:103400008C0F0020014806F0BFBA00BFBC070020A7
:1034100070B5284B187800284BD0FFF7E5FF05461C
:1034200090B1BFF35B8F244B53E8001F013943E891
:103430000012002AF8D1BFF35B8F204C204EB4421B
:103440002DD32846FFF7D6FF1E4B1F4C1B68002BC1
:1034500019DD07F082F84FF47A72A0FB020302FB39
:103460000131C30BD4E9002043EA41439B1A4FEAE0
:10347000D13140F2E93261EB0001934271F1000178
:1034800001D3FFF767FFD4E9003213F57A7342F1F5
:103490000002C4E90032BDE87040FFF7B3BF6368C3
:1034A0005B7923B1236829461B682046984710346E
:1034B000C5E770BDC0170020980F002080AF000046
:1034C00090AF0000940F0020400D002070B50D4D0E
:1034D000297861B90120FFF79FFE0B4C0B4EB442D7
:1034E00006D3FFF795FF0028FBD101232B7070BD99
:1034F00063685B791BB1236820469B68984710344A
:10350000EDE700BFC117002080AF000090AF0000C2
:1035100000212DE9F0470846FFF77EFE044648B338
:1035200040F267684FF0000903F0C0FD1A4B1860C5
:1035300030B11A4B1B68092B02DD194803F05EFA03
:10354000184FDFF85CA0002544B12046FFF7FEFDD0
:10355000044618B94FF0FF384FF0FF39FFF758FF16
:10356000064628B9B5B942464B46504603F06AFABA
:103570003546E9E74FF0FF384FF0FF39D4E72B68C5
:103580009B691BB100221146284698471035BD4261
:10359000F5D3E8E7044DFAE7900F0020980F0020DC
:1035A000AC08002090AF000080AF000013B51848B1
:1035B00006F013FB174B1B7873B1EFF31184202334
:1035C00083F31288BFF36F8FFFF722FF84F3118814
:1035D000BFF36F8F02B010BD0F4B1B68002BF9D0EB
:1035E00050B900220023CDE900230C484FF40042DB
:1035F000002303F0B1FFEDE70928EBD1074806F0FF
:10360000BAFF074802B0BDE8104003F0F7B900BFA9
:10361000980F0020C1170020900F0020480D0020B7
:10362000AC08002010B5064B1B680446984721469D
:10363000A060044806F0FAF8BDE81040FFF7B6BFF6
:10364000CC040020BC070020044A054B9B1AB1EBB8
:10365000D30F34BF52F831000020704738AF00005C
:1036600080AF0000084BC31A10B41B11446801332B
:10367000237143689A7143681960436801225A7143
:1036800010BCFFF727BE00BF80AF00002DE9F04F50
:103690008FB004AFC1F34A28B8600D4691467B60F5
:1036A0000C0DB8F1000F63D0002607F114034FF0A2
:1036B000040B4FF00A0AC7F80C80C7E907667E6260
:1036C0000193CDF808B0CDF800A007F11C03F9680C
:1036D00032464846FEF71CFEB0F5006F03461CD389
:1036E0006C468AB0D9F8041004AB2648C3E905013A
:1036F00040F2FF71D9611A464FF400711984224BD0
:1037000042F8103F214833464FF41251FFF7BEFFF5
:10371000A5462C37BD46BDE8F08FC0F30A0804F17A
:103720001700184420F0070080083B60FFF754FEA4
:1037300068F35325044690B13B68154AC7E908363B
:1037400000F1100107F11403F961CDE900A3CDF8F0
:1037500008B0F96807F11C034846FEF7D9FD68F385
:1037600053257B68B9682A46204606F06CFAD0E7F4
:1037700004F1170020F007008008FFF72DFE044633
:10378000EDE700BF26BA00000400000148AF0000CA
:103790001B9C00002DE9F04F87B0DDE91279DDE9CF
:1037A000105A0446039193469846BFB1CDF8009055
:1037B0003B46524610210020CDF81490FEF7D6FB70
:1037C000B0F5006F06460AD3184A194840F2FF7355
:1037D000022107B0BDE8F04F06F08EBA3E4605F173
:1037E0001700304420F0070004F007048008FFF7BA
:1037F000F3FD0BF0070BE40044EA8B1444EA462483
:1038000044EA0554054640B13FB1CDF800903B462F
:10381000524631461030FEF7A9FB03994346224633
:10382000284607B0BDE8F04F06F00DBA65BA0000B3
:1038300048AF0000406820B1034BC01A40F3CF00EE
:1038400070474FF0FF30704738AF00000EB403B53B
:1038500003AB014653F8042B0448019306F071FAB8
:1038600002B05DF804EB03B0704700BF519D00004B
:10387000CA0605D48B064CBF02490349FFF7E6BFD1
:10388000704700BF2BB500009DBA00002DE9F04F36
:1038900089B09A46149B06939DF84CB0159B0593EE
:1038A000169B179E049304460D469046BBF1000FED
:1038B00000F09D8006F48073079306F0ACF906F0E3
:1038C0000209024600283ED092492046FFF7BEFF7B
:1038D0000746B9F1000F08D016F0440F35D18E49D4
:1038E0002A462046FFF7B2FF074406F0010353B112
:1038F0008A4B8B4953F82B208A4B2046002A08BF5D
:103900001A46FFF7A3FF06F48073002B49D006F098
:103910000803002B63D1B8F1000F66D082494246FC
:103920002046FFF793FF0546069B3D44002B6DD1D3
:10393000049B002B73D1F30700F1E580314620464C
:10394000FFF796FFD9E00746C3E7784B18680028D1
:10395000CAD0774B4FF47A791B68B5FBF3F54FF477
:103960006161B5FBF0F300FB135509FB05F54FF062
:103970003C0CB3FBF1F201FB1231B5FBF0FEB1FBE5
:10398000FCF300FB1E550CFB131109FB05F5009120
:10399000B5FBF0F56749CDE901E52046FFF756FF95
:1039A000A2E706F00803EBB1634B644953F82B2000
:1039B0002046FFF74BFF0546B8F1000F05D05A49E6
:1039C00042462046FFF742FF0544BAF1000FABD054
:1039D0005B4952462046FFF739FF0544A4E74FF004
:1039E000000AE1E706F00805E6E745469CE7BAF17C
:1039F000010F069B06D1002B65D1049B002B7CD0C8
:103A000000250CE0002BF8D04E485DE04E48069BA8
:103A10004E49224605F0D0FC049B002B69D0DFF80C
:103A20003081DFF83091049F3146102F204628BFA7
:103A30001027FFF71DFF4FF0000A554546DC059B98
:103A400049461A782046FFF701FF4FF0010A1AF0A5
:103A5000070F03D141462046FFF7F8FE57453CD9F2
:103A6000059B494613F80A202046FFF7EFFE0AF1AE
:103A7000010ABAF1100FEAD1374920464FF0000A87
:103A8000FFF7E4FE5246059B9A5C344B995C11F0BB
:103A9000970F08BF2E2232492046FFF7D7FE0AF1C2
:103AA000010ABAF1100F1DD01AF0070F03D14146D9
:103AB0002046FFF7CBFE57455246E4D84146204604
:103AC000FFF7C4FEEBE720485D46A0E741462046ED
:103AD000FFF7BCFE0AF1010AAFE722492046FFF7D3
:103AE000B5FEC4E7059B3B440593049BDB1B049395
:103AF00099D1BBF1000F7FF41EAF204609B0BDE89D
:103B0000F04F06F011B9074A05492046FFF79EFE1F
:103B100014E700BFA5BA0000A9BA0000ACB00000CD
:103B2000CEBA0000A0BA0000D1BA0000A40F002055
:103B3000A00F0020B2BA0000C0B00000D5BA00004B
:103B4000DBBA0000879D0000519D0000439D0000EE
:103B5000E8BA0000E0BA0000EABA0000E5C10000DF
:103B6000ECBA0000E6BA000073B542F20F738B4264
:103B700028BF0B4605680F4A04460521684605F034
:103B800090FC63680C495B6806460B22284606F0E9
:103B9000BDF863683246694628465B6806F0B6F8A9
:103BA000636806495B681B22284606F0AFF802B03E
:103BB00070BD00BFC7BC00000BBB0000EFBA000027
:103BC000074A00210123904206D8064A01B9012381
:103BD0001360054B1860704740085B000121F2E755
:103BE00040420F00A00F0020A40F0020014B012233
:103BF0001A707047C2170020014B002019607047EF
:103C0000BC0F00200148FFF7AFBF00BFF0B00000BD
:103C100010B5064B18680C46FFF746FB21460346D5
:103C2000BDE8104002480F22184700BFBC0F00201B
:103C3000F0B00000F8B5094D094B0A4ED5E9004730
:103C400001221A700CB92C60F8BD214630463A4664
:103C500000F01EF8241A0644F4E700BFB00F00205D
:103C6000C3170020C417002010B9074B1870704705
:103C7000064B1B781BB141F2883006F0B4BAA42081
:103C8000002103F0F5B900BFC2170020C3170020C0
:103C90002DE9F843DFF874901D4F80460E4604244A
:103CA00099F8005095B902F0F3FB28463246414698
:103CB00002F0A0FB054602F0F5FBE5B101233B70E5
:103CC00099F8003073B93046BDE8F8833246414672
:103CD000002002F08FFB0546EFE72046FFF7C4FF08
:103CE000651E2C46002002F0C9FB0028EBD03B7873
:103CF000002BF2D1E7E73B78002BE4D0013C2046D3
:103D0000FFF7B2FF3B78002BCAD1DCE7C3170020D6
:103D1000C2170020014B03600020704700B1000073
:103D200008B5044805F0B0FBBDE80840024805F0BE
:103D3000ABBB00BF66BB00009BBB0000014803F0AB
:103D4000A5BC00BF00B1000038B5044618B90F4B40
:103D50000F485B6898476168B1F5683F10D0B1F5CE
:103D6000680F0DD00B4DA9420AD011F4686120688C
:103D700007D00146084806F093FA002323606560E7
:103D800038BD142206F029FCF9E700BF84050020A5
:103D9000C9BB00002C5F5CA9C014002008B520B38B
:103DA0004368B3F5683F10D101220368BFF35B8F0E
:103DB00053E8001F002903D143E800200028F7D171
:103DC000BFF35B8F0DD1002008BD094A93420AD092
:103DD00000684FF0FF324FF0FF3302F05BFD002828
:103DE000F1D00448F0E70448EEE76FF4E040EBE779
:103DF0002C5F5CA9E98FFFFFEA8FFFFF08B5D8B100
:103E00004368B3F5683F10D100220368BFF35B8FAE
:103E100053E8001F012903D143E800200028F7D10F
:103E2000BFF35B8F0BD1002008BD074A934208D037
:103E3000006802F0A7FDF6E76FF4E040F4E70348FE
:103E4000F2E70348F0E700BF2C5F5CA9E98FFFFFB2
:103E5000EA8FFFFF10B5044618B91D4B1D485B687B
:103E600098476368B3F5683F2FD0B3F5680F2CD03F
:103E7000194A934219D1236803BB18484FF0FF3207
:103E80004FF0FF33214602F0D7FC08B923681BB975
:103E90000F4B13485B68984720681422002106F0F6
:103EA0009CFB4FF46863636008E0B3F5683F0DD88E
:103EB0003A2B03D040F6BA629342DED1206806F076
:103EC00027FA636843F03A03636010BD054AF3E7DD
:103ED00084050020C9BB00002C5F5CA9C014002031
:103EE000EFBB00003A00003A08B5064906484023F7
:103EF000142206F0C7F9BDE808400449044803F05D
:103F000037BC00BFC00F0020C014002008B1000063
:103F10001CB100002DE9F047064600AF0C46002911
:103F200036D0E9468AB0D1E90012A3686D4621482F
:103F3000A8464FF0050AC5E90501C5E9072348F879
:103F400010AF1D48424600234FF42151FFF79EFB5E
:103F5000CD46D4E903126369AD461848C5F810A0F0
:103F6000C5E90501C5E907231348002342464FF47C
:103F70002151FFF78BFBCD46E369114A0E48012121
:103F800005F0BAFEA3690F4A0B48012105F0B4FE03
:103F9000012E07D1EFF305830B4A0748103B31464A
:103FA00005F0AAFE2146304602F092FABD46BDE871
:103FB000F08700BF1CBC000060AF00004BBC0000DD
:103FC0007ABC000089BC0000B7BC000030BFFFF71E
:103FD000FDBF00BF074A936893F90E10002907DB65
:103FE000526993421FBF044A536843F080535360A1
:103FF000704700BFAC15002000ED00E070B5294C03
:1040000006460D462848294905F00CFFA36AD90445
:104010003CD52548264905F005FF1720A36A1A0557
:1040200004D52148234905F0FDFE18201D4CA36A44
:104030009B0512D51C48204905F0F4FEA36BA26A2B
:10404000100409D51D4A1848012105F055FE1EB17E
:10405000A36A23F40043A3621920124CA36A5905F2
:1040600004D51148164905F0DDFE1A20A36ADA05C9
:104070000ED50D48134905F0D5FE1B20094A936A59
:1040800043F47F43936200232B7070BD1620C5E775
:10409000A36A9B04F2D504480B4905F0C3FE1C201B
:1040A000ECE700BF00ED00E060AF0000CABC00001C
:1040B000E0BC0000F1BC000004BD00001DBD00001C
:1040C00032BD00004DBD000065BD000010B5204CA4
:1040D0002049214805F0A6FEA36A990136D51E485D
:1040E0001E4905F09FFE1E20A36ADA0104D51A4876
:1040F0001B4905F097FE1F20154CA36A1B0304D52E
:104100001548184905F08EFE2120A36A590304D5ED
:104110001148154905F086FE22200D4CA36A9A032A
:1041200004D50D48114905F07DFE2320A36ADB0369
:1041300004D509480E4905F075FE2420044A936A07
:104140006FEA03436FEA1343936210BD1D20CBE770
:1041500000ED00E094BD000060AF0000ACBD0000C9
:10416000BFBD0000D9BD0000F7BD00001CBE0000AF
:1041700036BE00002DE9F843364D80468946364864
:104180003649174605F04EFEAB6ADE0627D53449A0
:10419000314805F047FE1124AB6A1D0704D53149AB
:1041A0002D4805F03FFE12242A4DAB6A980718D51A
:1041B0002D49294805F036FE6E6BAB6A190646D5C7
:1041C0002A4A25483346012105F096FDB9F1000F32
:1041D00003D0AB6A23F08003AB62132403E0102406
:1041E000DAE76FF015061B4DAB6ADA0704D52049F4
:1041F000194805F017FE1424AB6A9B0604D51D4927
:10420000154805F00FFE1524124B9A6AD50602D404
:104210009A6A90070AD55B68190507D5414630466A
:1042200000F07CFA10B180F309880224094B9A6AE5
:10423000920642BF5A6A22F400525A629A6A42F0C7
:10424000FF029A6200233B702046BDE8F8836FF0BE
:104250001506C2E700ED00E060AF000061BE00009F
:1042600077BE0000F1BC0000AABE0000C2BE000084
:10427000D8BE000065BD00002DE9F041664B8AB054
:10428000D3F8048000AF0446C8F30805002686F37F
:104290001188BFF36F8F02F07F43B3F17F4F07D1D7
:1042A00002F00C03082B12D15C495D4805F0BAFD01
:1042B000002634460023FB71EB1E092B00F28A8096
:1042C000DFE803F00A80837D888888888886100765
:1042D0004CBF0C460126EDE7524951484E4D05F0C2
:1042E000A1FD0023FB71EB6A9A0705D54E494C48A6
:1042F00005F098FD002333E0EB6A002B01DA4B490F
:10430000F5E7EB6A5B00F5D54949454805F08AFDBC
:104310006B69A26943F480736B61BFF34F8FBFF386
:104320006F8F6B6932F8022C23F480736B61BFF3DB
:104330004F8FBFF36F8F4DF602739A4209D0AB6A6D
:10434000DBB27BB3FA1D01212046FFF713FF0346C2
:1043500006E02368374A3248012105F0CDFC236886
:10436000FA79DAB907F1080504F1200C20686168D0
:104370002A4603C2083464451546F7D17A6A002EEE
:1043800044D0C2F3080121B96FEA52226FEA4222F7
:104390007A6207F108011846FFF7BCFD2837BD46D1
:1043A000BDE8F081AB6A13F47F4F04D0F91D012002
:1043B000FFF724FECBE7AB6AB3F5803F9AD3FFF754
:1043C00085FEC4E7FA1D0021BEE7F91D0020EFE7D6
:1043D00019498CE7194A1A4B18F4F87FE8468AB055
:1043E00018BF13466A461749C2E905134FF4007314
:1043F0001384103D144BD56142F8103F0848002348
:104400004FF41151FFF742F9C54673E722F4FF72EA
:1044100022F00102BCE700BF00ED00E025BF000074
:1044200060AF000050BF000067BF000088BF000001
:1044300096BF0000B5BF0000D1BF00000CBF000058
:10444000F7BE0000F5BF000004000001044B5A69EC
:1044500042F010025A615A6922F008025A6170470C
:1044600000ED00E0EFF30880EFF3098101B572463B
:10447000FFF702FF01BD00BF002080F31488BFF3E7
:104480006F8F01F069F900200D490860BFF34F8F6D
:104490000C4880F3088800F02BF8202080F3118866
:1044A00009484FF40461401880F30988EFF3148041
:1044B0000221084380F31488BFF36F8F00F0F6F8F1
:1044C00094ED00E0002D0020401B00200749D1F8AA
:1044D00090200023C2F307221846934200DB704766
:1044E000C1F89830C1F8A0000133F6E700ED00E014
:1044F00008B572B6002383F31388FFF7E7FF144B68
:104500004FF0FF32C3F88020C3F88420C3F888201E
:10451000C3F88C20C3F89020C3F89420C3F89820E7
:10452000C3F89C20C3F88021C3F88421C3F88821F4
:10453000C3F88C21C3F89021C3F89421C3F89821C3
:10454000C3F89C2162B6BFF34F8FBFF36F8F08BDD6
:1045500000E100E0084B9B6883420BD1EFF3058339
:1045600043B1064B5A6842F080525A605A6A22F4AC
:1045700000425A6205F0B6BFAC15002000ED00E025
:10458000094A93686FF00A019967084958674B68B0
:1045900043F080534B60002383F31188BFF36F8F88
:1045A0009368986F704700BFAC15002000ED00E0E5
:1045B00010B50446EFF31183202383F31288BFF371
:1045C0006F8F094B58699860084B4FF000625A6032
:1045D0000022436F426783F31188BFF36F8F00F0AF
:1045E00001F9204610BD00BFAC15002000ED00E031
:1045F0000B498A684FF030001044EFF3098C80E8D3
:10460000F01F74467046FFF7D3FFA64604498A6838
:1046100002F1300090E8F01F8CF309887047000029
:10462000AC1500201EF0040F0CBFEFF30880EFF371
:104630000980816911F8021C0229FFD001B505F03B
:10464000E6FB01BD40B2002807DB044A4109012313
:1046500000F01F00834042F82130704700E100E085
:10466000054B420900F01F0053F82220012303FAF2
:1046700000F01040704700BF00E100E040B20028A9
:10468000A8BF00F1604001F10101B8BF064B4FEA3D
:104690004111ACBF00F5614000F00F00C9B2B4BFDA
:1046A000195480F80013704714ED00E00B4A08B568
:1046B0000B4B22F07F029A60BFF34F8FBFF36F8FD7
:1046C000D3F8882022F47002C3F8882001F0ECFFB0
:1046D00002F078FD00F05CF802F02AF8000000001B
:1046E00000ED00E042F8203C009B42F81C3C0A49E7
:1046F000019B42F8183C029B42F8143C21F0010156
:104700004FF0807342F8043C42F8081C0023203A22
:1047100002654367704700BFBD940000094A034625
:10472000906870B113F1160F406E05D0A0F14002F1
:104730009A4205D8834203D2814228BF00207047A5
:1047400000207047AC15002008B50B4B0E461546EF
:10475000986000F047F82C4686F309884FF0000077
:10476000064B984720464FF000014FF000024FF0F3
:104770000003034C204700BFAC150020359E00000D
:10478000BD940000014B10221A61704700ED00E05B
:10479000044800232021C2180133302B82F8001373
:1047A000F9D1704700E100E008B5EFF30583064A50
:1047B000103B02EBC30152F8330049688847BDE85B
:1047C0000840FFF707BC00BFB8AD0000024B034A2A
:1047D0000348012100F08AB80000042000000020F6
:1047E0002CB10000426E054B403A1A60044A402149
:1047F000C3E901121846012100F082B8DC14002040
:1048000000000B1508B503461048D0F89020C2F3FD
:104810000722013A934207D90D480E4A012105F0BB
:104820006BFA6FF0150008BDC0F898300A6822F0E6
:104830001F021A4342F01002C0F89C208A6842F01E
:104840000102C0F8A0201846EDE700BF00ED00E02F
:1048500058AF00000CC00000F0B50E4685B01F46F2
:1048600004460025B5420DDA606810B397B1431EC7
:1048700018420AD0104A11482B46012105F03CFA93
:104880006FF01502104605B0F0BD1F28F2D921685F
:104890000B42EFD12368019305F0EFFAA36801A959
:1048A0000343D0B20393FFF7ADFF10F1160FE7D02B
:1048B000421C01350C34D5E732C0000058AF00006F
:1048C000044B0522C3F89420BFF34F8FBFF36F8FC3
:1048D000704700BF00ED00E0BFF35F8F024B002286
:1048E000C3F89420704700BF00ED00E010B5034C02
:1048F00001232278FFF7B0FF207010BDD4170020ED
:1049000008B50B4A00231278FFF7A6FF10F1160F27
:1049100007D0084A0021D2F89030C3F30723984209
:1049200000DB08BDC2F89800C2F8A0100130F2E721
:10493000D417002000ED00E02DE9F0435748584916
:10494000D0F890300D68C3F307239D4285B000F284
:10495000A180FFF7C1FF49680022954201F10C01D7
:104960001AD1504C504F25706846FFF7D3F9DFF845
:104970003C81DFF83C9106460025AE421FD12378EA
:1049800046490020D1F89020C2F3072293427BDBF6
:10499000FFF796FF00204CE0C0F8982051F80C3C3F
:1049A00023F01F03134343F01003C0F89C3051F869
:1049B000043C43F00103C0F8A0300132CDE7009879
:1049C00000EB05114FEA051CCB683B40B3F5000F27
:1049D00044D00AD8B3F5001F2ED0B3F5800F34D0E1
:1049E000B3F5801F10D00135C7E7B3F1807F3ED00B
:1049F000B3F1007FF7D150F80C3088684A6805F0B1
:104A00003CFA40F4802009E050F80C3088684A688D
:104A100005F033FA40F0885040F43020039001A9AB
:104A20002078CDE90123FFF7EDFE002828DA6FF0AA
:104A3000150005B0BDE8F08350F80C3088684A686E
:104A400005F01BFA40EA0800E8E750F80C308868E7
:104A50004A6805F012FA40EA0900DFE750F80C3026
:104A600088684A6805F009FA40F08270D6E750F885
:104A70000C3088684A6805F000FA40F08870CDE78D
:104A8000237801332370AEE7C1F89830C1F8A00055
:104A9000013377E74FF0FF30CBE700BF00ED00E0D8
:104AA00038B10000D41700200000F0FF000008110A
:104AB00000000207F8B5084F06460D460024AC4238
:104AC00008DA3B6898470A28305504F1010401D000
:104AD0000D28F4D12046F8BDF0040020F8B50A4FA7
:104AE0000D46461EC0F10104A3199D4201DC284673
:104AF000F8BD73780A2B02D13B680D2098473B68BC
:104B000016F8010F9847EFE7F404002010B5074CA2
:104B10002368C2180648C0F1005101F580218A427D
:104B20003ABF2260C0184FF0FF3010BDE8140020DB
:104B30004031002008B5054804F0A6FC002383F3AB
:104B40001188BFF36F8F0423184602DF64C0000092
:104B50000E4A0123C2F840354FF080424FF0805199
:104B6000C2F87835D1F83001082808D1D1F83411CD
:104B7000052904D80648415C09B1C2F838364FF01F
:104B800080430122C3F880250020704700E00140E7
:104B90006DC0000020B1034B800143F001031847B2
:104BA000704700BF90AF0000084B70B5C31A0D46A8
:104BB00007499B10044659430648402205F0A6F9D0
:104BC0002B4601462046BDE87040184700150020DE
:104BD000B76DDBB658AD000073B50C4C0C4A4023E2
:104BE000041B00930D460B460A49A4106143064678
:104BF000094805F0B6F9011E05DA30462B4602B029
:104C0000BDE87040184702B070BD00BF001500201D
:104C1000CB9F0000B76DDBB658AD000010B5EFF3C9
:104C20001184202383F31288BFF36F8F074A136820
:104C300023F00201DB07116002D4012005F04AFADB
:104C400084F31188BFF36F8F10BD00BF5015002093
:104C5000002270B5012104461046FFF70FFD0F48F2
:104C600000F0FEFE0E4B984215D100F009FF2669B8
:104C70000C49304604F0F0FE00280BDB01253564BA
:104C80002469084904F11C0004F0E6FE002801DB59
:104C9000E564002070BD6FF00400FBE7A14D00004B
:104CA0000000AD0B58B100001FB500220123CDE973
:104CB0000223094ACDF800D06B46CDF804D005F0A8
:104CC0007DF9002805DB4FF480420023684601F09F
:104CD000B9FE05B05DF804FBE99F000030B4104B4D
:104CE0000C2202FB003301460020D3E90E529863E8
:104CF000EFF31180202484F31288BFF36F8F1C6CB4
:104D000004F0C00444F002041C6480F31188BFF373
:104D10006F8F1DB12B46034830BC184730BC70471D
:104D20000015002058AD000010B4EFF311822023CD
:104D300083F31288BFF36F8F1748016841F00204B4
:104D40000460C80707D482F31188BFF36F8F012076
:104D500010BC00F0A7BE4FF08041D1F80C04D1F890
:104D60000C14C907EFD5EFF3118083F31288BFF35A
:104D70006F8F0A490B6C03F0C00343F002030B640E
:104D800080F31188BFF36F8F82F31188BFF36F8FA9
:104D9000002010BCFFF7A2BF501500200015002016
:104DA00010B1012804D07047034B1B6C5B0701D185
:104DB000FFF794BF704700BF00150020024AC3B23E
:104DC0001C2003FB00207047001500202DE9F04156
:104DD0003849BFF35B8F0746012251E8003F41E8A5
:104DE00000200028F9D1BFF35B8F33B93249334833
:104DF0004B60CB608A6004F042FE7B1E012B2BD8F7
:104E0000012F07D14FF08043D3F81C3403F0030384
:104E1000012B21D005F08FFA0546F8B9284B1B78F5
:104E2000E3B14FF080430222C3F808230646DFF8BF
:104E300094804FF08044D4F81824D4F81834D20366
:104E400015D503F00303012B01D0012F0FD155B36A
:104E500086F31188BFF36F8FBDE8F081EFF3118601
:104E6000202383F31288BFF36F8F0125DFE7ADB1F5
:104E7000304604F0F3FFD4F81835002BDBD1D4F81A
:104E80000421002AD7D0C4F80431D4F80431012316
:104E9000C4F81835C8F88031A360CCE70021212080
:104EA00002F0E6F8E7E74FF080430222C3F804235C
:104EB000D2E700BFFC140020EC1400201C150020D9
:104EC000D517002000E100E0F0B54068057B01F057
:104ED0001F0444EA4514056987B0002D64D0B2F57B
:104EE000001F00F1100506D12146284605F072F991
:104EF000002007B0F0BD01AE0027B2F5800F01978A
:104F0000776039D1B3F1007F14BF052304238DF8F6
:104F100004300023CDE904630393836823FA01F18D
:104F200011F001011AD1B2F1A07F17D104F01F03D3
:104F3000620903F5E0732AD0012A3BD11F4A52F8D7
:104F40002330DB070AD40DF10306324621462846FA
:104F500001F086F81A4B98421CD0029603AA21460B
:104F6000284600F03FFF174B984220D101222146EE
:104F7000284601F0D9F8BBE7B3F1C06F05D0B3F113
:104F8000007F14BF01230223C1E70323BFE74FF0D3
:104F9000A042D4E73146284601F0C0F8094B9842B8
:104FA000DBD06FF00B00A4E76FF08500A1E76FF096
:104FB00015009EE751F82330FFDE00BF00030050CC
:104FC0000400AD0B0000AD0B38B545682B69B3B1DB
:104FD0001035284601F092F8044680B9014628466B
:104FE00001F058F8084B98420BD108492246284650
:104FF00001F030F8224605210620FFF73FFB002094
:1050000038BD6FF00400FBE70000AD0B115000004D
:10501000420970B5034602D0012A17D070BD0D4E6B
:10502000326951680029F9D003F01F0301250C688B
:105030009D400029F2D08A682A4002D04B68304651
:1050400098472CB1236821461C46F2E7024EE7E759
:105050002346F8E788AD000070AD00002DE9F0436D
:10506000466840F20635D006337B87B002EA050574
:1050700054BFC2F34010032001F01F07B5F5837F32
:10508000144647EA43178DF8030045D00FD8062D84
:1050900018D007D8B5B1022D40D06FF0150007B079
:1050A000BDE8F083B5F5807FF7D101250AE040F235
:1050B0000222954234D0B5F5407F33D0B5F5007F5C
:1050C000EBD102250123220303FA01F12CD57368E9
:1050D000C3F80815326982BB07F01F037F0929D086
:1050E000012F77D13E4A02EB830284F48033D2F859
:1050F0000017C3F30043C4F3404444EA430421F4DB
:10510000E16144EA800421F0070144EA05230B43EE
:10511000C2F800370020C2E70725D3E70425D1E70E
:105120000525CFE70325CDE7630344BF7368C3F8C4
:105130000C15CFE74FF0A042D5E710360DF1020273
:105140003946304600F08CFF14F4403F80460CD1C5
:105150003946304605F03CF8224B9845DAD19DF8A7
:105160000210304600F0D4FFD4E701AB4FF0000945
:1051700003AA39463046CDE90439CDE90199CDF885
:105180000C9000F02FFE174B984286D114F4003398
:1051900015D09DF803308DF80E3084F48034C4F3BC
:1051A00000444B4603AA394630468DF80C508DF822
:1051B0000D4000F0D1FE0B4B9842CDD06DE7CDE90C
:1051C000043303AA0DF1030339463046039300F07C
:1051D00009FEF0E703F5E07352F82330FFDE00BF6D
:1051E000000300500000AD0B014B01221A60704714
:1051F00000C000400C2903690BD15B6A06490748CF
:105200004B4393FBF0F100FB11331160536000201E
:1052100070476FF08500704790D0030040420F0048
:10522000044B00690022C3F80021D3F8003101F0DB
:10523000E5BB00BF00C000407FB50569AB6A63B342
:105240003C2901D00C292BD105F110064FF0FF327B
:105250004FF0FF33304601F01DFB134B0193A86A5A
:105260000323002469460394029304F008FC4FF0E2
:10527000FF324FF0FF33284601F0E4FBA86A04F048
:1052800055FC0A4BD3F808256A6201225A60304661
:1052900001F078FB204604B070BD6FF00A00FAE719
:1052A0006FF08500F7E700BFE951000000C0004043
:1052B00010B504690020FFF781FDA0624FF0FF32B6
:1052C0000021204605F02BF804F1100005F020F82D
:1052D000002201210C20FFF7D1F90C20FFF7B2F9D1
:1052E000024B0122C3F80423002010BD00C000407F
:1052F00070B5012383400E4ABFF35B8FDC4352E855
:10530000001F01EA040542E80056002EF7D1BFF362
:105310005B8F4FF4803282400648C0F80823BFF309
:105320005F8FBFF36F8F0B4214BF0120002070BD51
:105330009C1500200010014070B40E49D1E90034E2
:10534000D01AC31844F1000422F07F46C1E90034AA
:10535000A6F50013B3F5400F09D2074B1B681A0AD4
:105360001B069C19054B42F10005C3E9004570BCC2
:1053700002F002B8900D0020A0150020980D00202A
:1053800011B3BFF35B8F0123104A834052E800CF73
:105390004CEA030C42E800C10029F7D1BFF35B8F50
:1053A0000B4A4FF480338340C2F80433094BBFF3F8
:1053B0005B8F1B68BFF35B8FC340DB0742BF064BAD
:1053C0004FF40032C3F80021704700BF9C15002045
:1053D000001001409815002000E100E00D4B186816
:1053E000010A0006BFF35F8F0B4BD3F80435181882
:1053F00041F10001B3F5801F0AD2084BD3E9002325
:10540000904271EB030303D210F1807041F100016F
:10541000704700BFA015002000100140980D00202B
:105420002DE9F04F85B016461F469DF840A0044672
:10543000FFF75EFF0190FFF7D1FFB04271EB07036A
:1054400054D23E4B301A67EB0101984271F10001D2
:105450004FD23B4B03EB0413D3E902239F4208BF17
:1054600096425ED037494FF4803804F1500508FA6F
:1054700004F8AD00C1F848832046ADB204F00CFE3C
:1054800026F07F4B05F1804504F5A87305F58835B6
:10549000DC464FF003090293029A2CF07F4341F857
:1054A0002230C1F84483D1F80435274A6FF0020056
:1054B000C01A604420F07F40904232D9286868B119
:1054C000D1F804350393A3EB0B0020F07F40B0F537
:1054D000000F26D9204604F0DFFD039BBAF1000F30
:1054E00007D109EB030C09F10109D5E7BAF1000F67
:1054F00009D06FF0150520460199FFF741FF2846B6
:1055000005B0BDE8F08F0123104ABFF35B8FA340C5
:1055100052E8000F184342E800010029F8D1BFF318
:105520005B8F07490E98230101EB0412C8500F9BB3
:105530005360C2E902670025DDE700BF010080007B
:10554000800D002000100140FDFF7F009815002015
:105550007FB51C4C1C4BC4F80833C4F848331B4BB4
:1055600000254FF0FF304FF0FF31C4F80855C3E974
:1055700002014FF48033C4F80433154B02264FF474
:1055800000320121C4F804631120C3F880212A46A7
:10559000FFF774F81120FFF755F80E4A0123A360B6
:1055A000236013600C4B0D4A0093CDE90155002395
:1055B0002846FFF735FF3046FFF708FC284604B0C1
:1055C00070BD00BF0010014003000F00800D0020DF
:1055D00000E100E09C15002039530000FFFF7F0030
:1055E0002DE9F7432F4CD4F8043399070BD5D4F8A1
:1055F000043143B12C4A0023C4F80431D4F80431F7
:10560000136801331360D4F80433DA0329D5BFF3E8
:105610005B8F264B53E8002F22F0010143E8001076
:105620000028F7D1BFF35B8FD30702D4D4F8403101
:10563000BBB10025C4F84051D4F84031FFF7CEFE8D
:10564000EFF31182202383F31288BFF36F8F184B7F
:10565000D3E90267B042B94106D282F31188BFF3A1
:105660006F8F03B0BDE8F0834FF0FF384FF0FF3984
:10567000C3E90289D3E900101D604FF48033C4F8F8
:105680004833C4F84051D4F8403182F31188BFF355
:105690006F8F0029E5D0009032463B462846884768
:1056A000DFE700BF00100140A01500209815002082
:1056B000800D002030B5431C124C85B005D08442CB
:1056C000A8BF0446012CB8BF0124FFF787FE0E4B8C
:1056D0000C4DD3E90013401AB0F5000F10D2221878
:1056E000AA4228BF2A4652184FF0000007490091ED
:1056F000CDE9010043F10003FFF792FE05B030BD94
:105700002A46F0E7FFFF7F00900D0020395300008C
:1057100008B5FFF763FE024B1B68C01A08BD00BF47
:10572000900D00204FF08053D3F83021082A06D185
:10573000D3F83431052B02D8024AD05C70470020E0
:10574000704700BFDAC00000024AD2F80034002BD4
:10575000FBD0704700E0014010B54FF08053D3F804
:105760003021082A4ED14FF080420021C2F80C119E
:10577000C2F81011C2F8381502F54042D3F80414EB
:10578000C2F82015D3F80814C2F82415D3F80C1465
:10579000C2F82815D3F81014C2F82C15D3F8141435
:1057A000C2F83015D3F81814C2F83415D3F81C1405
:1057B000C2F84015D3F82014C2F84415D3F82414C5
:1057C000C2F84815D3F82814C2F84C15D3F82C1495
:1057D000C2F85015D3F83014C2F85415D3F8341465
:1057E000C2F86015D3F83814C2F86415D3F83C1425
:1057F000C2F86815D3F84014C2F86C15D3F84434D5
:10580000C2F87035FFF78EFF18B13A4B3A4AC3F829
:105810008C26FFF787FF18B1384BFB22C3F81825F9
:10582000FFF780FF70B14FF080414FF08053D1F807
:10583000E42ED3F8583222F00F0203F00F03134383
:10584000C1F8E43EFFF76EFF20B12D4B4FF400721C
:10585000C3F840264FF08053D3F83031082B1AD1CB
:105860004FF08043D3F80024D20744BF6FF0010209
:10587000C3F800244FF08053D3F83431052B02D8FD
:10588000204AD35C3BB14FF01023D3F808224FF0ED
:105890008043C3F858254FF01023D3F80022002A84
:1058A00003DBD3F80432002B22DA174901234FF02F
:1058B0001020C1F804351224FFF746FFC0F800425B
:1058C000FFF742FFC0F80442FFF73EFF0023C1F894
:1058D0000435FFF739FFBFF34F8F0C490C4BCA68F3
:1058E00002F4E0621343CB60BFF34F8F00BFFDE7CC
:1058F00010BD00BF005000404881030000F0004090
:1059000000900240D4C0000000E0014000ED00E043
:105910000400FA0530B50468CCB1BFF35B8FB4FA6C
:1059200084F3C3F11F03DBB201229A4024EA02028E
:1059300050E8005FA54204D140E8002CBCF1000F04
:10594000F6D1BFF35B8FE6D102480B7030BD024841
:10595000FCE700BF0000AD0B0200AD0B10B5036803
:10596000CB40DB0714D401238B400268BFF35B8F6D
:1059700043EA020150E8004F944204D140E8001C81
:10598000BCF1000FF6D1BFF35B8FEED1014810BD23
:105990000148FCE70000AD0B0400AD0BF7B5044671
:1059A00018B1012823D003B0F0BD4FF0804302228C
:1059B000C3F808230122DA60C3F80401D3F80431E4
:1059C000064601238DF8073042F210754FF08047EC
:1059D000D4B1012CE7D1D7F80C3403F48033AEBB3B
:1059E00083B3012004F074FB013DF4D12AE04FF0B1
:1059F00080430022C3F808035860C3F80021D3F89D
:105A000000310DF10706DCE7D7F8183403F48033D2
:105A10003EB9002BC7D0012004F05AFB013DF3D161
:105A2000C1E7D7F8182402F003023260002BBAD085
:105A30009DF80700012803D104F04AFB013DC7D1BE
:105A4000012CB0D1054B00225A71ACE7D7F80C24D9
:105A500002F001023270002BEAD1F3E7A415002016
:105A6000044B1A7922B9012218609A8002487047C3
:105A700002487047A41500200000AD0B0C00AD0BD0
:105A800008B5074B1B682BB10020FEF7E9FD08B9EC
:105A9000FEF7D8FD4FF080430022C3F8182508BD5B
:105AA000A415002010B510B1012843D010BD4FF04F
:105AB0008043D3F81814D3F81824C80321D502F072
:105AC0000303012B04D013B10020FFF767FF00236D
:105AD0004FF080420220C2F8183508224FF482733A
