:1000000000380020B95E0000A1BC0000A55E000021
:10001000A55E0000A55E0000A55E000000000000D7
:10002000000000000000000000000000AD600000C3
:10003000A55E00000000000041600000A55E000019
:1000400059630000596300005963000059630000C0
:1000500059630000596300005963000059630000B0
:1000600059630000596300005963000059630000A0
:100070005963000059630000596300005963000090
:100080005963000059630000596300005963000080
:100090005963000059630000596300005963000070
:1000A0005963000059630000596300005963000060
:1000B0005963000059630000596300005963000050
:1000C0005963000059630000596300005963000040
:1000D0005963000059630000596300005963000030
:1000E0005963000059630000596300005963000020
:1000F0005963000059630000596300005963000010
:1001000001F0FF01102A2BDB10F0070F08D010F8C8
:10011000013B013A8B422DD010F0070F42B3F6D1CC
:10012000F0B441EA012141EA014122F007047FF0E5
:1001300000070023F0E80256083C85EA010586EA3C
:10014000010685FA47F5A3FA87F586FA47F6A5FA78
:1001500087F68EB9EED1F0BC01F0FF0102F0070284
:1001600032B110F8013B013A83EA010313B1F8D12F
:100170000020704701387047002D06BF3546033810
:10018000073815F0010F07D1013015F4807F02BF49
:10019000013015F4C03F0130F0BC0138704700BF9A
:1001A00081F0004102E000BF83F0004330B54FEA28
:1001B00041044FEA430594EA050F08BF90EA020F95
:1001C0001FBF54EA000C55EA020C7FEA645C7FEA28
:1001D000655C00F0E2804FEA5454D4EB5555B8BF4B
:1001E0006D420CDD2C4480EA020281EA030382EABC
:1001F000000083EA010180EA020281EA0303362D4E
:1002000088BF30BD11F0004F4FEA01314FF4801C20
:100210004CEA113102D0404261EB410113F0004F32
:100220004FEA03334CEA133302D0524263EB4303E9
:1002300094EA050F00F0A780A4F10104D5F1200E87
:100240000DDB02FA0EFC22FA05F2801841F10001E2
:1002500003FA0EF2801843FA05F359410EE0A5F1B6
:1002600020050EF1200E012A03FA0EFC28BF4CF0E7
:10027000020C43FA05F3C01851EBE37101F000459D
:1002800007D54FF0000EDCF1000C7EEB00006EEBAA
:100290000101B1F5801F1BD3B1F5001F0CD3490834
:1002A0005FEA30004FEA3C0C04F101044FEA44528B
:1002B00012F5800F80F09A80BCF1004F08BF5FEA12
:1002C000500C50F1000041EB045141EA050130BDF2
:1002D0005FEA4C0C404141EB0101013C28BFB1F504
:1002E000801FE9D291F0000F04BF01460020B1FA4F
:1002F00081F308BF2033A3F10B03B3F120020CDA22
:100300000C3208DD02F1140CC2F10C0201FA0CF0FF
:1003100021FA02F10CE002F11402D8BFC2F1200C64
:1003200001FA02F120FA0CFCDCBF41EA0C0190401A
:10033000E41AA2BF01EB0451294330BD6FEA040463
:100340001F3C1CDA0C340EDC04F11404C4F120024E
:1003500020FA04F001FA02F340EA030021FA04F360
:1003600045EA030130BDC4F10C04C4F1200220FAB7
:1003700002F001FA04F340EA0300294630BD21FAF5
:1003800004F0294630BD94F0000F83F4801306BFBB
:1003900081F480110134013D4EE77FEA645C18BFAF
:1003A0007FEA655C29D094EA050F08BF90EA020F46
:1003B00005D054EA000C04BF1946104630BD91EA3E
:1003C000030F1EBF0021002030BD5FEA545C05D141
:1003D0004000494128BF41F0004130BD14F5800480
:1003E0003CBF01F5801130BD01F0004545F0FE41F4
:1003F00041F470014FF0000030BD7FEA645C1ABF29
:10040000194610467FEA655C1CBF0B46024650EA5F
:10041000013406BF52EA033591EA030F41F400218B
:1004200030BD00BF90F0000F04BF0021704730B511
:100430004FF4806404F132044FF000054FF00001E6
:1004400050E700BF90F0000F04BF0021704730B5A7
:100450004FF4806404F1320410F0004548BF40427C
:100460004FF000013EE700BF42004FEAE2014FEAD1
:1004700031014FEA02701FBF12F07F4393F07F4FAC
:1004800081F06051704732F07F4208BF704793F0AF
:100490007F4F04BF41F40021704730B54FF46074C2
:1004A00001F0004521F000411CE700BF50EA0102C5
:1004B00008BF704730B54FF000050AE050EA01026E
:1004C00008BF704730B511F0004502D5404261EBDE
:1004D00041014FF4806404F132045FEA915C3FF41F
:1004E000D8AE4FF003025FEADC0C18BF03325FEABC
:1004F000DC0C18BF033202EBDC02C2F1200300FA6D
:1005000003FC20FA02F001FA03FE40EA0E0021FA91
:1005100002F11444BDE600BF70B54FF0FF0C4CF47F
:10052000E06C1CEA11541DBF1CEA135594EA0C0F31
:1005300095EA0C0F00F0DEF82C4481EA030621EA6C
:100540004C5123EA4C5350EA013518BF52EA0335A7
:1005500041F4801143F4801338D0A0FB02CE4FF059
:100560000005E1FB02E506F00042E0FB03E54FF089
:100570000006E1FB03569CF0000F18BF4EF0010E81
:10058000A4F1FF04B6F5007F64F5407404D25FEA7D
:100590004E0E6D4146EB060642EAC62141EA555130
:1005A0004FEAC52040EA5E504FEACE2EB4F1FD0C72
:1005B00088BFBCF5E06F1ED8BEF1004F08BF5FEAF0
:1005C000500E50F1000041EB045170BD06F00046A2
:1005D00046EA010140EA020081EA0301B4EB5C044F
:1005E000C2BFD4EB0C0541EA045170BD41F4801147
:1005F0004FF0000E013C00F3AB8014F1360FDEBF6C
:10060000002001F0004170BDC4F10004203C35DA47
:100610000C341BDC04F11404C4F1200500FA05F3CA
:1006200020FA04F001FA05F240EA020001F000426B
:1006300021F0004110EBD37021FA04F642EB0601E1
:100640005EEA430E08BF20EAD37070BDC4F10C040B
:10065000C4F1200500FA04F320FA05F001FA04F2CF
:1006600040EA020001F0004110EBD37041F10001BB
:100670005EEA430E08BF20EAD37070BDC4F12005C6
:1006800000FA05F24EEA020E20FA04F301FA05F22E
:1006900043EA020321FA04F001F0004121FA04F2D6
:1006A00020EA020000EBD3705EEA430E08BF20EAA6
:1006B000D37070BD94F0000F0FD101F000464000E0
:1006C00041EB010111F4801F08BF013CF7D041EA62
:1006D000060195F0000F18BF704703F00046520066
:1006E00043EB030313F4801F08BF013DF7D043EA37
:1006F0000603704794EA0C0F0CEA135518BF95EAED
:100700000C0F0CD050EA410618BF52EA4306D1D173
:1007100081EA030101F000414FF0000070BD50EA92
:10072000410606BF1046194652EA430619D094EA1C
:100730000C0F02D150EA013613D195EA0C0F05D106
:1007400052EA03361CBF104619460AD181EA03015A
:1007500001F0004141F0FE4141F470014FF0000012
:1007600070BD41F0FE4141F4780170BD70B54FF0AD
:10077000FF0C4CF4E06C1CEA11541DBF1CEA13552D
:1007800094EA0C0F95EA0C0F00F0A7F8A4EB05040F
:1007900081EA030E52EA03354FEA013100F0888006
:1007A0004FEA03334FF0805545EA131343EA1263CF
:1007B0004FEA022245EA111545EA10654FEA002684
:1007C0000EF000419D4208BF964244F1FD0404F53D
:1007D000407402D25B084FEA3202B61A65EB030599
:1007E0005B084FEA32024FF480104FF4002CB6EB56
:1007F000020E75EB030E22BFB61A754640EA0C00D6
:100800005B084FEA3202B6EB020E75EB030E22BF15
:10081000B61A754640EA5C005B084FEA3202B6EB56
:10082000020E75EB030E22BFB61A754640EA9C0015
:100830005B084FEA3202B6EB020E75EB030E22BFE5
:10084000B61A754640EADC0055EA060E18D04FEAA3
:10085000051545EA16754FEA06164FEAC30343EA43
:1008600052734FEAC2025FEA1C1CC0D111F4801F10
:100870000BD141EA00014FF000004FF0004CB6E709
:1008800011F4801F04BF01430020B4F1FD0C88BFA8
:10089000BCF5E06F3FF6AFAEB5EB030C04BFB6EBB3
:1008A000020C5FEA500C50F1000041EB045170BDA6
:1008B0000EF0004E4EEA113114EB5C04C2BFD4EBD3
:1008C0000C0541EA045170BD41F480114FF0000E57
:1008D000013C90E645EA060E8DE60CEA135594EAD3
:1008E0000C0F08BF95EA0C0F3FF43BAF94EA0C0FD6
:1008F0000AD150EA01347FF434AF95EA0C0F7FF44B
:1009000025AF104619462CE795EA0C0F06D152EA9E
:1009100003353FF4FDAE1046194622E750EA410682
:1009200018BF52EA43067FF4C5AE50EA41047FF493
:100930000DAF52EA43057FF4EBAE12E74FF0FF3CF8
:1009400006E000BF4FF0010C02E000BF4FF0010CC9
:100950004DF804CD4FEA410C7FEA6C5C4FEA430C42
:1009600018BF7FEA6C5C1BD001B050EA410C0CBF91
:1009700052EA430C91EA030F02BF90EA020F0020F3
:10098000704710F1000F91EA030F58BF994208BF5A
:1009900090422CBFD8176FEAE37040F00100704717
:1009A0004FEA410C7FEA6C5C02D150EA013C07D16E
:1009B0004FEA430C7FEA6C5CD6D152EA033CD3D0B9
:1009C0005DF8040B704700BF8446104662468C46B3
:1009D0001946634600E000BF01B5FFF7B7FF0028E6
:1009E00048BF10F1000F01BD4DF808EDFFF7F4FF0F
:1009F0000CBF012000205DF808FB00BF4DF808ED9A
:100A0000FFF7EAFF34BF012000205DF808FB00BFBC
:100A10004DF808EDFFF7E0FF94BF012000205DF8DE
:100A200008FB00BF4DF808EDFFF7CEFF94BF012093
:100A300000205DF808FB00BF4DF808EDFFF7C4FF8C
:100A400034BF012000205DF808FB00BF4FEA410CD5
:100A50007FEA6C5C02D150EA013C0AD14FEA430CB8
:100A60007FEA6C5C02D152EA033C02D14FF00000F5
:100A700070474FF0010070474FEA410212F5001233
:100A800015D211D56FF47873B3EB625212D94FEAD5
:100A9000C12343F0004343EA505311F0004F23FABF
:100AA00002F018BF404270474FF00000704750EA14
:100AB000013005D111F0004008BF6FF000407047D1
:100AC0004FF00000704700BF53B94AB9002908BF72
:100AD00000281CBF4FF0FF314FF0FF3000F00CB882
:100AE000ADF1080C6DE904CE00F010F8DDF804E07B
:100AF000DDE9022304B07047704700BF034613F8D6
:100B0000012B002AFBD1181A013870472DE9F04754
:100B100086468C460846089E154674461946002BA4
:100B200040F0C2808542B2FA82F245D94AB1C2F1A0
:100B3000200300FA02FC2EFA03F3954043EA0C0C62
:100B400094404FEA154EA8B2BCFBFEF8230C0EFBF6
:100B500018CC08FB00F943EA0C43994528D9EB1857
:100B600008F1FF3704D2994502D9A8F102072B44B6
:100B7000A3EB0903A4B2B3FBFEFC0EFB1C330CFB7E
:100B800000F044EA0344A04214D92C190CF1FF33BD
:100B900004D2A04202D9ACF102032C44241A43EA45
:100BA00007401EB1D440002334607360BDE8F08775
:100BB0004746DDE76346F1E792BB431B01214FEA5D
:100BC000154EAFB2B3FBFEFC200C0EFB1C330CFB2E
:100BD00007F840EA0343984562D9EB180CF1FF305F
:100BE00004D2984502D9ACF102002B44A3EB0803D0
:100BF000A4B2B3FBFEFC0EFB1C330CFB07F744EA6C
:100C00000344A7424ED92C190CF1FF3304D2A7425A
:100C100002D9ACF102032C44E41B43EA0040C0E7D4
:100C2000C2F1200320FA03F1954090402EFA03F31D
:100C300003434FEA154EAFB2B1FBFEFC0EFB1C1096
:100C4000190C0CFB07F841EA0041884504FA02F44C
:100C500022D969180CF1FF3004D2884502D9ACF1D1
:100C600002002944A1EB08019BB2B1FBFEFC0EFB84
:100C70001C110CFB07F743EA01439F420ED9EB1806
:100C80000CF1FF3104D29F4202D9ACF102012B4496
:100C9000DB1B41EA004192E76046E3E76146F7E784
:100CA0006046A3E76346B7E7834206D916B9002139
:100CB00008467BE7C6E900E0F9E7B3FA83F78FB9A6
:100CC000834201D3724508D8BEEB020460EB0303F4
:100CD00001209C461EB9002168E73846FAE7C6E9BC
:100CE000004CF8E7C7F1200CBB4022FA0CF41C437F
:100CF0002EFA0CF120FA0CF3B84001434FEA1449E4
:100D00000EFA07F5B3FBF9F81FFA84FE09FB183059
:100D10000B0C08FB0EFA43EA00439A4502FA07F26D
:100D200040D9E31808F1FF3004D29A4502D9A8F15E
:100D300002002344A3EB0A0389B2B3FBF9F809FBD1
:100D4000183308FB0EFE41EA03418E452CD9611889
:100D500008F1FF3304D28E4502D9A8F102032144E1
:100D600043EA0040A0FB0298A1EB0E014145CE46AC
:100D7000434602D306D14D4504D2B9EB020E68EBCF
:100D800004030138002EA6D0B5EB0E0261EB03017F
:100D900001FA0CFC22FA07F34CEA0303F940C6E916
:100DA000003198E74046C5E74346D9E70000000018
:100DB0002DE9F04F2DED068B89B0DD4ADD48DD4C85
:100DC000032100AF09F005FFDB4B93E8070007F1B3
:100DD00008060C3386E8070093E8070007F11409BA
:100DE00089E807009FEDD09B00237B60E84688B030
:100DF000D9F80020EB46D1495D464FF40073ABF8BB
:100E00001C30CF4BCBE9051245F8103F20462A464F
:100E10004FF4E65109F0E1FECA4AC54620460321D7
:100E200009F0D7FE3068032102F0F6FBDD469FEDA6
:100E3000C68AC64ACBF8142070EE087A4FF0040A2E
:100E400017EE900AFFF710FB2A46CBE90601CBF814
:100E500010A04FF40351204609F0BFFEC54656F8D6
:100E6000040B0AF0B6F8DD4670EE087AB84ACBF803
:100E7000142017EE900AFFF7F7FA2A46CBE906018D
:100E8000CBF810A04FF40351204609F0A6FEC5464A
:100E900056F8040C0AF08DF8DD4670EE087AAD4A7B
:100EA000CBF8142017EE900AFFF7DEFA2A46CBE9BA
:100EB0000601CBF810A04FF40351204609F08DFE37
:100EC000C54659F8042BDD46A3499D4BCBF810309D
:100ED000CBE905124FF40072ABF81C204FF4E65139
:100EE0002A46204609F079FEC54659F8042CDD460D
:100EF0009A49934BCBF81030CBE905124FF40072AE
:100F0000ABF81C2020462A464FF4E65109F065FE56
:100F10004FF4C030C546002109F06EFE56F8040CAF
:100F200038600A2102F018FC38680AF042F8DD4601
:100F300070EE087A8A4ACBF8142017EE900AFFF771
:100F400093FA2A46CBE90601CBF810A020464FF4CD
:100F5000035109F042FE834AC5460321204609F0A9
:100F600038FE59F8042CDD467F49754BCBF810301C
:100F7000CBE905124FF40072ABF81C2020462A463C
:100F80004FF4E65109F029FE784A9FED79AAC5464B
:100F90002046032109F01DFE4FF4C030002109F066
:100FA0002BFE56F8040C3860052102F035FB38683A
:100FB000F0EE408A09F0FDFF38EEC00A3868C0EE56
:100FC0000AAAB0EE6A0A09F0FAFFDD4678EE887ADE
:100FD000684ACBF8142017EE900AFFF745FACBF8D1
:100FE00010A0CBE906012A464FF40351204609F030
:100FF000F4FDC546DD467AEE887A5F4ACBF81420C8
:1010000017EE900AFFF730FACBF810A0CBE90601F3
:101010002A464FF40351204609F0DFFDC546DD4660
:10102000B7EE007AC7EE2A7A544ACBF8142077EE4E
:10103000887A17EE900AFFF717FA2A46CBE90601DD
:10104000CBF810A020464FF4035109F0C6FD4C4ADE
:10105000C5462046032109F0BCFD56F8040C0521C5
:1010600009F08AFF70EE4A7ADD46C7EE8A8ADFED24
:10107000457A68EEA78A70EE087A434ACBF81420C6
:1010800017EE900AFFF7F0F9CBF810A0CBE90601B4
:101090002A464FF40351204609F09FFDC546DD4620
:1010A0003A4ACBF814208BED069BCBF810A02A46C9
:1010B0004FF40351204609F090FDC546DD4678EE19
:1010C000887A334ACBF8142017EE900AFFF7CCF950
:1010D0002A46CBE90601CBF810A04FF40351204675
:1010E00009F07BFDF1EE047AF0EEE88AF4EEE78A8F
:1010F000F1EE10FAC5464BBF264A274A03210221CA
:10110000204609F066FD254A0321204609F061FDCD
:10111000E84688B059F8043C6D46214AAB46C5E91B
:1011200005234FF4007A3DE00000000000408F40AE
:101130005DD60000F4CD000040CE000085D6000052
:10114000030000019CD6000000000000B2D60000A1
:10115000C6D60000DCD60000F1D6000026D700007D
:101160005FD700007AD7000094D70000BFD70000F7
:1011700000007A44FDD700001DD800003DD80000D3
:101180005ED800000000C84279D8000097D800005F
:10119000B5D80000C5D80000EFD8000022D9000063
:1011A00041D900003F4BA5F81CA04BF8103F20464A
:1011B0005A464FF4E65109F010FD4FF48030C54611
:1011C000002109F019FD56F8040C032109F0D4FEA2
:1011D000AD4670EE087A344B6B6117EE900AFFF75C
:1011E00043F90422C5E906012A614FF403515A4626
:1011F000204609F0F2FCC54659F8043CAD462B499F
:10120000A5F81CA0C5E90513264B2B615A462046BC
:101210004FF4E65109F0E1FC4FF48030C54600215F
:1012200009F0EAFC56F8040C032109F0A5FEAD46CE
:1012300070EE087A1E4B6B6117EE900AFFF714F9F7
:101240000422C5E906012A614FF403515A4620469B
:1012500009F0C3FCC54659F8043CAD461549A5F84C
:101260001CA0C5E905130F4B2B615A464FF4E651FC
:10127000204609F0B2FC4FF48030C546002109F049
:10128000BBFC7B680133032B7B607FF4AFAD0A4A64
:101290000A48194609F09DFC2437BD46BDEC068B73
:1012A000BDE8F08F030000016FD900008AD900006B
:1012B000C1D90000E3D90000FED90000F4CD000040
:1012C0002DE9F04F9FB08246039117461C4600253A
:1012D000387810B9284600F0A6BD252809D0039912
:1012E000D0470028C0F29F857B1C01350593059FE0
:1012F000EEE71822002110A80BF0B6F87B78252B1A
:1013000000F0BC800023791C98469E469C461846F7
:101310000E4611F8012B2B2A00F0E38000F2DA8050
:10132000202A00F0E180232A00F0E1802BB19DF813
:10133000483043F040038DF84830B8F1000F05D035
:101340009DF8483043F020038DF84830BEF1000F7F
:1013500005D09DF8483043F010038DF84830BCF1BB
:10136000000F05D09DF8483043F008038DF8483051
:1013700028B19DF8483043F004038DF848309DF8BB
:10138000483003F04401442903D16FF386138DF8EC
:1013900048309DF848300E9643F080032A2A8DF895
:1013A000483040F0A9809DF8493043F001038DF8A2
:1013B0004930731C1A782E2A9DF849200CBF012150
:1013C000002161F341028DF849200CD15A1C0E9284
:1013D0005A782A2A40F0A0809DF8492042F0040261
:1013E0008DF8492002331A786C2A00F0C18000F28F
:1013F000A380682A00F0A9806A2A00F0C2804C2AE3
:1014000000F0C78013F8012B0593782A8DF84B2044
:1014100000F209816D2A00F2C980692A00F2038175
:10142000572A00F2E280412A04D0A2F14503022BA0
:1014300000F2F9809DF84A3002F0DF020421A2F1A7
:10144000410961F30203D9F100029DF849108DF8BA
:101450004A3042EB090262F3C7110A068DF84910BF
:10146000CBB200F11F8103F07802182A40F0098105
:101470006FF3C6038DF849300023F8E08DF84B3048
:10148000BB1C05939DF849309DF84A20DE0702F009
:10149000070040F1098154F8041B0491002908DA7F
:1014A0009DF8481041F004018DF848100499494214
:1014B0000491590740F1008154F8046B002E80F22A
:1014C000FF809DF849306FF341038DF849304FF0AC
:1014D000FF36F5E02D2A0DD0302A7FF427AF012307
:1014E00016E74FF0010C13E74FF0010E10E74FF035
:1014F00001080DE701200BE70EA803F0A7F90E9BEA
:10150000B3423FF457AF9DF848201390C00F60F3EB
:1015100041028DF848204DE70EA803F097F99DF899
:1015200048301490C3F3400242EAD07262F34103A0
:101530008DF848300E9B56E7742A26D07A2A7FF41D
:1015400061AF9DF8492006210CE05A78682A9DF881
:10155000492006D1012161F3C6028DF849200233EA
:1015600050E7022161F3C6028DF84920013349E7B3
:101570005A786C2A9DF8492001D10421EBE7032118
:10158000F0E79DF849200521ECE79DF84920072167
:10159000E8E7BDF8482022F4F04222F0020242F4CB
:1015A000804242F00202ADF84820DFE76E3AD3B243
:1015B00001229A4040F282431A429DF8493039D1C3
:1015C00012F0240F61D1D1072DD59DF84A2003F0E8
:1015D0007803A3F14008032161F30202D8F100036C
:1015E0008DF84A2043EB080341E0A2F15801C9B24B
:1015F000012000FA01F111F4624F7FF41BAF40F6B5
:10160000010319429DF849301AD111F4043F0AD060
:101610009DF84A2060F3020203F07803402B8DF816
:101620004A207FF429AF9DF8483043F001038DF83C
:10163000483021E79DF84A20022161F30202EBE7DE
:101640009DF84A10022003F0780360F30201402B5A
:101650008DF84A1002BF9DF8481041F001018DF845
:101660004810632A7FF408AF003B18BF01239DF8A0
:101670004820C2F340010B4363F341028DF8482038
:1016800000E713F0380FCED1F6E69DF84A2003218B
:1016900013F0780F61F302028DF84A2014BF012382
:1016A0000023E4E70123E2E79DF948100029B4BFD5
:1016B00013994FF0FF31FBE69E077FF508AF149EAC
:1016C00000230428CDE913339DF8493007D1990749
:1016D00005D49DF949100029ACBF06260D2602F05D
:1016E0000702012AC3F3C30332D1DA1E042A04D845
:1016F000DFE802F02045452020002268012B4FEA58
:10170000E271CDE910211BD19DF94020D117CDE91F
:10171000102104349DF84820069292074FD0059B73
:1017200003993A46504609F017FE0028C0F27B8321
:101730000544DCE554F8042BD117CDE91021E9E785
:10174000022BE6D111B242F3C032CDE91012E0E72C
:10175000022A24D1DA1E042A04D8DFE802F0181085
:1017600010181800012B54F8042B4FF0000114D06E
:10177000022BCDE91021CDD192B21092CAE70734E5
:1017800024F00704F4E80201CDE91001C2E754F89F
:10179000042B109200221192BCE7D2B2CDE7042AAA
:1017A00008D1073424F00704D4E900010834CDE956
:1017B0001001AFE7032AADD154F8042BDDE79DF803
:1017C0004B80B8F1780F3FF692ADB8F1570F5CD867
:1017D000B8F1250F00F0A480B8F1240F7FF687AD93
:1017E000B8F1410F04D0A8F14503022B3FF67FADBD
:1017F000DDE91023002BC0F24D810699080700F1A6
:101800004C81C1F300194FEA4919C3F30A51C3F3DC
:101810001303002940F0448152EA030014BF4FF043
:10182000010C4FF0000CD80240EA5250D702CDE92B
:101830000C70B8F1460F47EA010740EAE17008BFB3
:101840004FF06608384300F0B881BCF1000F10D0AB
:101850001B0343EA125317033A4618464FF0000C95
:10186000002880F25681BCF1000F40F05981CDE98B
:101870000C730D9B43F00043A1F2FE3B0D9300213E
:10188000DDE90C230F46052060E1A8F15802202A6B
:101890003FF62DAD01A151F822F000BF671A0000FC
:1018A000EF120000EF120000EF120000EF12000034
:1018B000EF120000EF120000EF120000EF12000024
:1018C000F1170000EF120000131A0000271A0000A1
:1018D000F1170000F1170000F1170000EF120000EF
:1018E000271A0000EF120000EF120000EF120000B4
:1018F000EF1200006D1A0000671A0000B71900000F
:10190000EF120000EF12000031190000EF1200008A
:10191000671A0000EF120000EF120000671A0000C3
:1019200003994046D0470028C0F27D820135DEE4AD
:10193000002E109F3BDB314638460AF0ADFE002FEB
:101940003FF4D5AC3E18F31B4FF000099DF84A2038
:1019500012F01001069100F05B82023312F0400297
:10196000DDF84C80089218BF149ACDF81C804344CF
:1019700018BF9B18049A002A40F36582D31A9DF879
:10198000482004935007C2F3800B00F15C8251069B
:1019900040F14C82B9F1000F07D003994846D04777
:1019A0000028C0F240820135D94630223FE2384655
:1019B000FFF7A4F8C6E71098002800F024820DF184
:1019C0007503009312AA17AB002102F055FFBDF872
:1019D0004A3003F0EF0343F4F04343F010030746AB
:1019E000ADF84A304FF00009002E0CDB9DF848207E
:1019F0000DF17503DB1B6FF386129E428DF84820B4
:101A000001D9F31A1393002F3FF471AC0DF1750651
:101A10006DE0109B8DF85C304FF000090DF15D0614
:101A200017AF012392E7069B1F0758BFC3F30019A6
:101A3000DDE9102354BF4FEA49194FF02B09002B61
:101A400006DA524263EB4303CDE910234FF02D0930
:101A50000DF175030093DDE9100117AB12AA02F036
:101A60000BFF0746C0E74FF00009F1E7109A072B7C
:101A70003FF63DACDFE803F00C04060C08080C0C44
:101A8000157034E4158032E4EB17C2E900532EE4FC
:101A900015602CE44FF02D09B7E64FF02B09B4E6A2
:101AA00040F2FF70814231D108F10108A2495FFA8A
:101AB00088F8134311F8081001F003011ED1012921
:101AC0000BBF492369234E216E210CBF462266229B
:101AD0008DF85C309DF848308DF85D106FF38613FB
:101AE0008DF85E208DF848300DF15F0617AFF31BBF
:101AF000B9F1000F3FF42AAF013327E7012915BFE1
:101B00006E234E23612141211A46E1E74FF0000C7C
:101B100089E6921801F1FF3140414FF0010C9FE638
:101B2000CDE90C20A5E6520842EAC3725B08B3F186
:101B3000333F59460BF1010BF5D200FB03FCA2FB2E
:101B4000002301F1020B6344013F01211BF1020F4D
:101B5000E9DB09B1CDE90C23BBF1000FDDE90C3263
:101B60002EDCCBF10401A1F120000BF11C0B02FAD9
:101B70000BFB22FA00F0CA40CB40079208F0DF02CC
:101B800043EA0B03472A43EA00037DD1F91C01DB3A
:101B9000BE422BDAA8F10208002E5FFA88F87CDD3D
:101BA0009DF84820920606F1FF3676D4B6F1000B78
:101BB00018BF4FF0010B721C27E04FF0000B5EE6E0
:101BC000023342F100020CA8CDE90C3209F095FB7A
:101BD000DDE90C320BF1FF3B0137DB185241002AE3
:101BE0000BF1FF3BF9DACDE90C32B5E79DF848205F
:101BF0009006A6EB07064DD4B6F1000B18BF4FF0C8
:101C0000010BF2194FF066084AD4102AA8BF10221F
:101C10009FED477B8DED0E7B10200B90DDE90E01D3
:101C2000002A3FD1079A1B1842EB0101B1F1805FF6
:101C300047D2CDE90C31069BB8F1660F03F02002C4
:101C400040F0C180002F47DC30238DF85C30002A43
:101C500074D1002E40F3BA812E238DF85D3087B108
:101C60007B42B342A8BF33469DF84A201393002B12
:101C7000A6EB0306D4BF0023012363F345128DF8BE
:101C80004A200DF15E0340E0B8F1660F4FF0000B03
:101C9000B7D090E74FF0000BB3E74FF0000B8AE7A7
:101CA0000022B5E7400840EAC1704908CDE90E01BD
:101CB0000EA8CDE9082309F020FB089A099B013AF8
:101CC000ACE75B0843EAC1730CA84908CDE90C31C5
:101CD000013709F012FBAEE717AB0B9900290BDDBA
:101CE0000BA90CA8CDE9063209F01FFB069B079A49
:101CF00003F8010B013FF0D11397AAB9002E40F36E
:101D000063812E2103F8011B0027002E1FDD0B9A93
:101D1000002A1CDD0BA90CA8069309F006FB069B04
:101D2000013E03F8010BF0E72E2203F8012BEBE74D
:101D300000000000000000086EF000002E238DF867
:101D40005D30002F9DD0002E8ADC0DF15E03BBF1CB
:101D5000000F4CD114961E4608F0DF03452B21D10D
:101D6000002FBABF7F422D232B23632FC8BF6422CD
:101D70007370C2BFB7FBF2F303F1300102FB1377BC
:101D80004FF00A0286F80080CABFB17002360336EF
:101D9000B7FBF2F303F1300102FB13733033317000
:101DA00073700236139B002B2BDC149B002BD4BFCB
:101DB000002301239DF84A2063F3861200238DF847
:101DC0004A20337092E60BA90CA8069209F0ADFAEE
:101DD000069A8DF85C00302818BF07F1FF3712B95A
:101DE000002E40F3F3802E238DF85D3049E71E4628
:101DF000013B16F8012C302AF9D02E2A08BF1E46C6
:101E0000AAE70123D6E7734E8146771F05239DE598
:101E1000110748BF0133A1E5104609920399D04745
:101E20000028099A05DA1FB0BDE8F08F2022DDF8FE
:101E300010B0594600290BF1FF3BEDDC049BCDF8B7
:101E400010B02B445D1AB9F1000F05D00399484634
:101E5000D0470028E7DB0135089B002B79D09DF99E
:101E60004930002B29DBDFF870913B46187819F8D0
:101E7000002052079B4603F101033FD49DF84A30EE
:101E8000EF1B98065F4407D44246002A08F1FF384A
:101E90003BDC079B3B449F1A9BF800002E280AD18D
:101EA0000399D0470028BEDBB8F1000F07F1010706
:101EB00031DC0BF1010B5D4638E0B94699F80000C2
:101EC0007028C84609F1010913D1EF1B149D47443E
:101ED0003D44EB1B002B34DC03993346424650460D
:101EE00009F03AFA00289EDB3844049E0546064471
:101EF00065E00399D0470028E0DA94E70693039958
:101F0000D0470028069BB1DA8DE703993020D047EF
:101F10000028B9DA87E703993020D04708F1FF3865
:101F2000C0E70399D0470028FFF67DAF287819F85D
:101F300000305907A84605F10105F2D4A7EB0B07BD
:101F4000C4E703993020D0470028FFF66CAF013773
:101F5000BFE79DF84A30DA0601D41B0706D503997E
:101F60003020D0470028FFF65EAF0135069B3BB11D
:101F700003999DF84B00D0470028FFF654AF013578
:101F8000A84406E003993020D0470028FFF64BAF65
:101F90000135A8EB0503002BF4DC039933463A46E0
:101FA000504609F0D9F90028FFF63DAF28449CE7D8
:101FB00003992020D0470028FFF635AF0135731B69
:101FC000002BF5DCFFF793B91746C0E60DF15D0372
:101FD000BDE600BF50E800006FF000000000000008
:101FE0002DE9F04F476A97B08DED000B55EC104B83
:101FF000209E089183460C9212937FB9102007F01F
:10200000E3FA0246CBF8240020B9A74BEA21A748FF
:1020100008F020FAC0E901770760C760DBF82430D8
:10202000196859B15A684A60012393408B60584639
:1020300007F036FFDBF8243000221A602B1EB9BFF0
:1020400023F00043019300233360019F984BBCBFF2
:1020500001223260BB4319D1129A42F20F7313600E
:10206000C7F31303234300F0DD85219B53B9914B44
:1020700021E0914B03930833219A1360039817B022
:10208000BDE8F08F8B4B03930333F5E79DED007BA9
:10209000002251EC170B00238DED0A7BFEF7A4FC08
:1020A000804650B1129A01231360219B13B1219AEB
:1020B000824B1360824B0393E0E79DED0A0B14AA59
:1020C00015A9584608F06EF9C7F30A560290002E7B
:1020D00078D00B9BCDF84C80C3F31303DDE90A01E4
:1020E00043F07F5343F44013A6F2FF361946002213
:1020F000744BFEF759F866A3D3E90023FEF70CFAF8
:1021000065A3D3E90023FEF751F8044630460D4697
:10211000FEF798F962A3D3E90023FEF7FDF9024622
:102120000B4620462946FEF741F804460D46FEF7C9
:10213000A3FC00220746002320462946FEF75EFC4A
:1021400040B13846FEF77EF922462B46FEF74CFC9E
:1021500000B9013F162F52D85B4B03EBC703D3E9FD
:102160000023DDE90A01FEF749FC002849D0013FC0
:1021700000231193149B9B1B5A1E45BFC3F10103FF
:10218000069300230023079254BF06930793002F62
:1021900039DB079B10973B44079300230993089B67
:1021A000092B66D8052BC4BF043B0893089BA3F1F9
:1021B0000203CCBF00240124032B65D8DFE803F021
:1021C0002B383657DDE914631E4406F23243202BC8
:1021D000C1BFC3F140039F4006F2124324FA03F348
:1021E000D6BFC3F1200347EA030004FA03F0FEF769
:1021F00019F90122A1F1F873013E139276E7012348
:10220000B7E71190B6E7069BDB1B06937B42099369
:1022100000231093C3E700230D930C9B002B57DC86
:102220000123049399461A460C920CE00123F3E72C
:1022300000230D930C9BFB1803F1010904934B46FB
:10224000012BB8BF0123DBF824000021042202F196
:1022500014059D4240D94160584607F0E1FD0390C6
:1022600000283CD1194B02464FF4D571CFE601232B
:10227000DFE70124002308930D944FF0FF3304930C
:10228000994600221223CFE701230D93F5E700BF03
:1022900061436F63A787D23FB3C8608B288AC63F6C
:1022A000FB799F501344D33FAAF10000C1F1000015
:1022B0000000F07FA6F100009DF100009BD400001B
:1022C0009AD400000000F83FB0CE000035F20000C4
:1022D0000C9B04939946B6E701315200B7E7DBF84F
:1022E0002430039A1A60B9F10E0F6FD8002C6DD00C
:1022F000002F36DDA14B07F00F0203EBC20393ED75
:10230000007BF8058DED0E7B4FEA271417D59C4B0B
:10231000DDE90A01D3E90823FEF728FACDE9000137
:1023200004F00F044FF00308954D5CB9DDE90E236E
:10233000DDE90001FEF71AFACDE900012BE04FF0CC
:102340000208F1E7E10709D5DDE90E01D5E900232F
:10235000FEF7E2F8CDE90E0108F101086410083536
:10236000E3E700F007817C42844B854D04F00F02C7
:1023700003EBC203D3E90023DDE90A01FEF7CCF841
:10238000CDE90001241100234FF00208002C40F099
:10239000E580002BD0D1119BDDE90045002B00F03A
:1023A0004C81784B002220462946FEF727FB002867
:1023B00000F04381B9F1000F00F03F81049B002B36
:1023C00000F3E480DDE90A34CDE90034159B002BED
:1023D00002DB0E2F40F342820D9A002A40F0678202
:1023E000099CDDF818800025B8F1000F0DD0079B7F
:1023F000002B0ADD4345069AA8BF4346D21A06922F
:10240000079AA8EB0308D31A0793099B0BB30D9BFC
:10241000002B00F0A682002C00F0A1822946224663
:10242000584607F065FE029A01460546584607F0F1
:10243000B5FD02990646584607F032FD099B1B1B65
:10244000099300F09182099A3146584607F050FEF0
:1024500002900121584607F08BFD109B0446002B8B
:1024600000F084821A460146584607F041FE089B58
:10247000012B044603DC009B002B00F07C8200262D
:10248000236904EB830318690AF09AF91096C0F1E6
:102490002000079B184410F01F0000F09182C0F14B
:1024A0002003042B40F38182069BC0F11C000344EF
:1024B0000693079B034480440793069B002B05DD8E
:1024C00002991A46584607F06DFE0290079B002BB2
:1024D00005DD21461A46584607F064FE0446119B66
:1024E000002B00F07682029821460AF0B8F9002805
:1024F00080F26F82002302990A22584607F0F2FC0C
:102500000D9B02907E1E002B00F05C82002329466A
:102510000A22584607F0E6FC049B002B054603DC24
:10252000089B022B00F35E82B8F1000F05DD2946FF
:102530004246584607F036FE0546109B002B00F039
:10254000D0826968584607F06BFC0746002840F0C7
:102550007F820D4B024640F2EA2158E5E20706D59C
:10256000D5E90023FDF7D8FF08F101080123641025
:1025700008350BE74FF002080DE700BFB0CE0000B2
:1025800088CE00000000F03F35F200002046AD4B41
:1025900000222946FDF7C0FFCDE90001049C7E1E04
:1025A00008F101084046FDF74DFFDDE90023FDF786
:1025B000B3FFA54B0022FDF7F9FDA1F15073CDE962
:1025C0000E010F93002C3BD1DDE900019F4B00224F
:1025D000FDF7EAFD02460B46CDE90023DDE90E23B7
:1025E000FEF72AFA002840F05781DDE90E2101F1BB
:1025F0000043DDE90001FEF701FA00283FF4E2AEF6
:10260000002425460C9BDDF80CA0DE434FF00008AB
:102610002146584607F044FC002D00F0A980B8F18F
:10262000000F05D0A84503D04146584607F038FCB6
:102630002946584607F034FC9AE03E464C46B1E73E
:10264000834B03EBC40353E90201039B1C440D9B22
:10265000002B4AD002460B4600207E49FEF786F842
:10266000DDE90E23FDF7A0FDCDE90E01DDF80CA09C
:10267000DDE90001FEF700FA0546FDF7E3FE02463C
:102680000B46DDE90001FDF78FFD3035CDE9000196
:1026900002460B460AF8015BDDE90E01FEF7CCF9B4
:1026A000002865D1DDE900236B490020FDF77CFDA2
:1026B00002460B46DDE90E01FEF7BEF9002840F0A8
:1026C0000D81A24500F0EA80DDE90E015D4B00229C
:1026D000FDF722FF5B4BCDE90E010022DDE9000191
:1026E000FDF71AFFCDE90001C2E7DDE90E23FDF792
:1026F00013FFCDE90E01DDF80CA0A046DDE90001D5
:10270000FEF7BAF90546FDF79DFE02460B46DDE9E8
:102710000001FDF749FD30350AF8015B02460B4622
:10272000A245CDE900234FF0000223D1494BDDE95A
:102730000E01FDF73BFD02460B46DDE90001FEF709
:102740007BF9002840F0CA80DDE90E2341490020D2
:10275000FDF72AFD02460B46DDE90001FEF74EF9C2
:1027600070B1C24608F1FF381AF8013C302BF8D09E
:10277000374655E0334BFDF7CFFECDE90001BDE70D
:10278000DDE90A34CDE90034159B002BFFF628AEB5
:102790000E2F3FF725AE2E4B03EBC70393ED007BC7
:1027A0000C9B002B8DED047B02DAB9F1000F64D095
:1027B000DDE90045DDF80CA0DDE9042320462946CB
:1027C000FDF7D4FFFEF758F90646FDF73BFEDDE9BD
:1027D0000423FDF7A1FE02460B462046294606F1DA
:1027E0003004FDF7E1FC0AF8014B039CAAEB04045A
:1027F000A14502460B4640F08280FDF7D7FCDDE99B
:10280000042304460D46FEF717F9002865D1DDE9DB
:10281000042320462946FEF7E7F808B1F3075CD405
:102820000299584607F03CFB00238AF80030129BBF
:1028300001371F60219B002B3FF420ACC3F800A0A0
:102840001CE400BF0000244000001C4000001440B5
:10285000B0CE00000000E03F0000F03FA24B03EBD1
:10286000C70393ED007B0C9B002B8DED047B9FDA5F
:10287000B9F1000F9CDC7FF4C3AE9C4B0022DDE974
:102880000401FDF749FEDDE90023FEF7CBF804461D
:1028900000287FF4B5AE3E462546B4E0DDE90A34B3
:1028A000CDE90034159B002B01DB0E2FD6DD089AF5
:1028B000012A36DC139A82B303F23343099CDDF814
:1028C0001880069A1A440692079A01211A4458461B
:1028D000079207F04DFB054686E53E4653469A466D
:1028E00013F8012D392A06D1039A9A42F7D1039998
:1028F000302201360A701A7801321A7038E77C4BA0
:102900000022FDF709FE0022002304460D46FEF7D3
:102910006BF800283FF450AF82E7149BC3F13603F5
:10292000CCE7099B09F1FF34A34208DBB9F1000FA2
:10293000A3EB04040EDBDDF818804B46C1E7099BCE
:10294000109A0994E31A1A44DDF8188010924B4645
:102950000024B6E7069BA3EB09080023B1E7029E1B
:1029600071E5099A029970E5029672E5089B012BC0
:1029700017DC009BABB9019BC3F313039BB9019B0D
:1029800023F00046360D360536B1069B013306931B
:10299000079B013307930126109B002B7FF470AD3A
:1029A0001096012075E50026F6E73FF486AD069AFD
:1029B0001C331A440692079A1A44984407927CE5FD
:1029C0000346F4E7049B002B2BDC089B022B09DC5D
:1029D00027E0B9F1000F1DDC089B022B1ADDCDF8B2
:1029E00010903E46049B002B7FF40CAE214605223E
:1029F000584607F077FA01460446029809F02FFF7F
:102A000000287FF7FFADDDF80CA031230AF8013B69
:102A10000136FBE50D9BCDF810903E46002B7FF470
:102A200083AD039F0298214609F042FE00F1300970
:102A300007F8019B039B049AFB1A9A4240F3CB8050
:102A4000029900230A22584607F04CFA0290E9E75F
:102A50002A690232920005F10C010C3009F0F6FCF3
:102A600001223946584607F09DFB039B03F1010AFA
:102A7000DDE9032313440793009B03F00103A846F9
:102A8000099305460AF1FF3321460298049309F0A1
:102A90000FFE4146069000F13009029809F0DFFE72
:102AA0002A4621460746584607F0E8FBC268014619
:102AB00002B3584607F0F4F9002F3ADA02990122DE
:102AC000584607F06FFB2146029009F0C8FE002827
:102AD00003DC29D119F0010F26D0B9F1390F1DD12E
:102AE00032E02846C1E700BFB0CE0000000014402D
:102AF000000024400A90029809F0B1FE0A990C9057
:102B0000584607F0CDF90C9A5ABB089B53B9099B5C
:102B100043B9B9F1390F17D0002F05DD069B03F13A
:102B2000310901E0002F2ADADDF810A00AF8019B34
:102B30006EE5089B3B4304D1009B03F00103002B8F
:102B4000BCD0B9F1390F36D1049F392307F8013BC6
:102B5000BA46013F1AF8013C392B5BD001333B7078
:102B600056E5002F06DB089B3B4306D1009B03F094
:102B7000010313B9002AA1DCD6E7002AE1DC079B98
:102B80000AF8019C534557462FD0029900230A2288
:102B9000584607F0A7F9A84502904FF000034FF000
:102BA0000A02414658460BD107F09CF9804605467B
:102BB0000AF1010A66E7DDF810A009F10109B5E79D
:102BC00007F090F92946804600230A22584607F06C
:102BD00089F90546ECE7049B002BC8BF1F46039B01
:102BE000D8BF01271F444FF0000802990122584620
:102BF00007F0D8FA2146029009F031FE0028A7DC40
:102C000002D119F0010FA3D1BA4617F8013D302BBC
:102C1000FAD0FDE4039BBB429AD1039A31230136DB
:102C20001370F5E4219B002B7FF423AA014BFFF7DF
:102C300042BA00BF9DF100002DE9F84F2DED028B47
:102C400000AFE84688B005466C463C4BDFF814916F
:102C50003B4826464FF4007AC4E90531A4F81CA08D
:102C600046F8109F4FF4E651324607F0B6FF28466B
:102C7000C54608F0AEF9A5469FED328A324B636136
:102C800070EE087A4FF0040B17EE900AFDF7ECFB9C
:102C90003246C4E90601C4F810B04FF40351284885
:102CA00007F09BFF2846C54608F083F9A54670EE5D
:102CB000087A264B636117EE900AFDF7D5FB324682
:102CC000C4E90601C4F810B04FF403511C4807F0E2
:102CD00084FF2846C54608F07CF9F7EE007A1C4AC6
:102CE0001C4BB4EEE70AF1EE10FAA546D8BF134626
:102CF0006A461949A2F81CA0C2E90513104842F817
:102D0000109F4FF4E65107F068FF2846C54608F0CB
:102D10004DF9124A03460321094807F05CFF284693
:102D200008F005F90E4A03460321054807F053FF52
:102D3000BD46BDEC028BBDE8F88F00BF2BD2000072
:102D4000F4CD00000000000042D2000058D2000084
:102D50001CD2000020D200006ED2000082D20000FF
:102D600096D200000300000137B504460948056902
:102D7000836801A95B68984748B9019B2A685A4053
:102D8000012303FA04F0024214BF1846002003B0E6
:102D900030BD00BF24CC000001230A4603FA00F135
:102DA000074B18690068014218BF82F001021AB18E
:102DB0009B68DB68024818479B681B69FAE700BFFD
:102DC0000CCC00002DE9F041554A564800AF0321D4
:102DD00007F0FFFE544809F051F938B9534A012170
:102DE000504807F0F6FEBD46BDE8F081504A4D4818
:102DF000032107F0EEFE4F4A4A48032107F0E9FE9F
:102E000049484FF4C0220B2107F0EAFE46484FF430
:102E1000C0220F2107F0E4FE4FF4C02242480E21E9
:102E200007F0DEFE01210B20FFF7B6FF01210F2086
:102E3000FFF7B2FF01210E20FFF7AEFF642007F07D
:102E4000DDFE00210B20FFF7A7FF00210F20FFF779
:102E5000A3FF00210E20FFF79FFF642007F0CEFEA6
:102E6000354A3048032107F0B4FE344A2D48032187
:102E700007F0AFFE324A33481D2107F0B1FE304A59
:102E80003048032107F0ACFE2D4A2E481C2107F0E4
:102E9000A7FE1D20FFF768FF06460320FFF764FF2B
:102EA00005461C20FFF760FFE8468AB004466A46E4
:102EB000254BC2E905360523C2E907504FF42351DB
:102EC00042F8103F174807F088FE012EC54624D16E
:102ED000012D22D1012C20D11C4A1248022107F0D9
:102EE00078FE1B4A0F48032107F073FE194A0D486C
:102EF000032107F06EFE184A0A48032107F069FE15
:102F0000164A0848032107F064FE154A05480321C4
:102F100007F05FFE134A032162E7134AF6E700BF9A
:102F2000AAD20000F4CD00000CCC0000C0D20000FA
:102F3000D8D20000EED200000DD300002ED3000046
:102F40001000010024CC00004DD3000067D3000026
:102F50009ED30000B1D30000C5D30000D2D300003F
:102F6000F6D300002ED400000AD4000008B50A4AA7
:102F70000A48032107F02DFE094809F07FF830B90F
:102F8000BDE80840074A0548012107F022BEBDE818
:102F90000840FFF717BF00BF48D40000F4CD000081
:102FA00024CC000069D400002DE9F04F83B05C4AC6
:102FB0005C48DFF8B881DFF86CA100AF032107F0AF
:102FC00008FE00261D250B24C7F804D08AB06A46E7
:102FD000554B4FF4007BC2E90538544BA2F824B09E
:102FE000C2E907454FF4335142F8103FE4B250466E
:102FF00007F0F3FD2146D7F804D04D48EDB24FF469
:10300000C02207F0EDFD4B4A4B48294607F0E8FD8A
:103010002846FFF7A9FE494A034681460321504648
:1030200007F0D9FD01212046FFF7B6FE322007F058
:10303000E5FD00212046FFF7AFFE322007F0DEFD60
:103040002846FFF791FE3E4A0346044603215046B8
:1030500007F0C1FDB9F1010F40D1012C41D188B079
:103060006A46384BA2F81CB0C2E90538364B42F824
:10307000103F2C484FF4E45107F0AFFD334AD7F826
:1030800004D02848032107F0A4FD314A2548032134
:1030900007F09FFD2F4A2348032107F09AFD2E4A8F
:1030A0002048032107F095FD2C4A1E48032107F014
:1030B00090FD2B4A1B48032107F08BFD0136032EA0
:1030C00024D0012E05D0DFF8A88002261C250E246E
:1030D0007AE7DFF8A08003250F2475E7B9F1000F28
:1030E00001D0002CEAD16C4688B06A461D4BC2E97B
:1030F00005384FF400739383134B42F8103F4FF49D
:10310000E651504607F069FDA546D7E7164A05483F
:10311000314607F05EFD0C37BD46BDE8F08F00BFBD
:103120009CD40000F4CD0000BBD4000005000001D9
:103130000CCC00001000010024CC0000EED40000F4
:1031400005D500001ED500000300000153D5000086
:1031500064D5000089D50000A1D50000C4D50000C9
:10316000EBD5000008D600003AD6000093D400004A
:103170008AD4000081D400002DE9F04F2DED068B9C
:1031800089B0514A5148DFED52AADFF8408103214E
:1031900000AF07F01EFD4F4B93E8070007F108054D
:1031A0000C3385E8070093E8070007F1140484E86E
:1031B0000700AB46A24600235BF8040B7B600321AB
:1031C00007F0DAFEDFED449A9FED449A5AF8042B9B
:1031D0006E4688B080EE2AAA6C4660EE299A20EEF0
:1031E000099AB0EE408A3E492546C4E905124FF4DB
:1031F0000072A2833B4A45F8102F4FF4E6512A464D
:10320000404607F0EAFCB546A546DFED378A374A67
:10321000626178EE287A4FF0040917EE900AFDF704
:1032200023F9C4F81090C4E906012A464FF403516B
:10323000404607F0D2FCB546A5467AEE287A2C4ADD
:10324000626117EE900AFDF70FF9C4F81090C4E917
:1032500006012A464FF40351404607F0BEFCB5462E
:10326000A54679EEA87A234A626117EE900AFDF727
:10327000FBF8C4F81090C4E906012A464FF4035144
:10328000404607F0AAFCB546A54679EE287A1A4AC8
:10329000626117EE900AFDF7E7F8C4F81090C4E9F0
:1032A00006012A464FF40351404607F096FC7B681E
:1032B0000133032BB5467FF47FAF2437BD46BDEC09
:1032C000068BBDE8F08F00BF1DDA0000F4CD0000D2
:1032D00000007A4440CE0000637B103B12AC203CDF
:1032E00039DA000003000001000000003DDA0000B0
:1032F00052DA000064DA000077DA00007FB57C4A19
:103300007C487D4C032107F064FC7C4A794803210A
:1033100007F05FFCFFF72AFE4FF40040002107F0A2
:103320006BFC0B26FFF740FE4FF4C0254FF48030B6
:10333000002107F061FC724B724973480094CDE99B
:1033400001651D2200F014F9031E08DA6F4A69486E
:10335000012107F040FC4FF0FF3004B070BD0F2397
:10336000CDE9004367496A48029503F1011303223E
:1033700000F0FEF8031E01DA664AE8E70E23CDE905
:10338000004360495E4B644802951C2200F0F0F84F
:10339000031E01DA614ADAE750215B4800F020F9A8
:1033A00050215B4800F01CF950215B4800F018F9EF
:1033B0005B4A5048032107F00CFC514B51495948D6
:1033C0000094CDE901651D2207F035FD031E7CDA6E
:1033D000554A4848012107F0FEFB0F234FF4C02156
:1033E000CDE9013151484749009403F1011303220B
:1033F00007F021FD031E6EDA4D4A3E48012107F019
:10340000EAFB0E234FF4C022CDE901323D493C4B8B
:10341000484800941C2207F00EFD031E61DA464A5C
:103420003448012107F0D7FB444A3248444E314D1D
:10343000032107F0CEFBFDF7BBFC4FF480300021E9
:1034400007F0DAFB3F4A2B48032107F0C2FB00F0EC
:10345000EDFD4FF48030002107F0CEFB3A4A2548BD
:10346000032107F0B6FB394A2248032107F0B1FBDC
:1034700000240134234632460321284607F0ABFBE3
:10348000FFF77AFE0A22B4FBF2F302FB134383B97F
:103490002F4A0321284607F09CFB2E492148FFF7BD
:1034A000CBFB2D492148FFF7C7FB2C492148FFF7EB
:1034B000C3FB28462A4A2346032107F08CFB4FF41E
:1034C0002030002107F098FBD3E7264A0948032162
:1034D00007F07FFB81E7244A0648032107F079FBC8
:1034E0008FE7224A0348032107F073FB9CE700BFE4
:1034F00088DA0000F4CD00000CCC0000B8DA00003F
:103500001000010024CC000008110020F2DA0000B5
:10351000F01000201ADB0000D810002042DB000071
:103520006ADB0000A01000209BDB00006810002078
:10353000FDDB0000301000205FDC0000C1DC00007B
:103540005DDD0000ECDC00001ADD000048DD00005D
:1035500071DD000093D4000081D400008AD4000003
:103560008CDD0000CCDB00002EDC000090DC0000D5
:10357000F8B505469DF81C60089F084611461A4696
:10358000069B2DB320B31BB3C5E90003C5E9032790
:1035900029726E7207F042FB041E05DA0E482146BE
:1035A00007F087FE2046F8BD68683A46314607F0C6
:1035B00035FB041E02DA09482146F1E743F23430B4
:1035C000002105F04DFB45F20103AB820024E9E741
:1035D0006FF01504E6E700BFA9DD0000CBDD0000B9
:1035E00008B54175024807F064FE002008BD00BF21
:1035F000ECDD000007B501A907F088FB0028AABF91
:10360000DDED017A9FED030AB8EEE70A03B05DF83D
:1036100004FB00BF0000000070B501292DED028BF6
:1036200038BF01219FED0D8A05460C46002628462D
:10363000FFF7E0FF013638EE008A07F0F8FBF3B23F
:10364000A342F4D307F0E5FB07EE904AB8EEE70A91
:10365000286388EE000ABDEC028B70BD00000000FC
:103660002DE9F0412DED028B032938BF032190B0E5
:103670000F2901AF0C46064628BF0F240025B84687
:103680003046FFF7B7FF0135A7EC010AEDB207F0AE
:10369000CEFBAC42F4D12146404607F096FBA5088C
:1036A000A4EB94019FED0E8ACCB22B4608EB85006B
:1036B000DAB294420ED807F0ACFB631B00EE103A6E
:1036C000B8EEC00A306388EE000A10B0BDEC028B81
:1036D000BDE8F081F0EC017A013338EE278AE7E7A4
:1036E0000000000010B5B5EEC00AF1EE10FA2DEDA5
:1036F000028B0446B0EE408A1BD4F7EE007AB4EE9B
:10370000670AF1EE10FAC8BFB0EE678A2046FFF7ED
:1037100071FF94F82C307BB9012384ED0A0A84F8F8
:103720002C3007F076FB2063BDEC028B94ED0A0A87
:1037300010BD9FED088AE9E7F7EE007A77EEC87AC8
:1037400094ED0A7A28EE008A07EE878A84ED0A8AC9
:10375000E7E700BF0000000010B50446FFF75CFF7C
:10376000012384F8243084ED080A10EE100AFCF7D7
:103770007BFEBDE8104002460B46014807F099BDAC
:1037800029DE000010B400234FF07E520021802477
:103790008361C2610162838480F82640816280F87F
:1037A0002C30036342635DF8044B014807F081BD90
:1037B00042DE000030B51F481F4C85B007F079FD90
:1037C0004FF4C0250B23CDE901351C491C4B1D4886
:1037D00000941D2207F02FFB011E05DA1A4805B0E0
:1037E000BDE8304007F065BD0F23CDE90043134924
:1037F0001648029503F10113032207F01CFB011E7A
:1038000001DA1348EBE70E23CDE900430B490C4BDB
:10381000104802951C2207F00EFB011E01DA0E482B
:10382000DDE70E4807F045FD0D4B01221A7005B08B
:1038300030BD00BF62DE00000CCC000024CC0000D4
:1038400010000100901100208FDE000058110020B0
:10385000C1DE000020110020F3DE000025DF0000A3
:10386000041A0020F0B53E4B1B7885B0002B74D0B5
:103870003C4807F01EFD3C4807F01BFD3B48052176
:10388000FFF7CAFE3A48052110EE104AFFF7C4FEC2
:103890003848052110EE106AFFF7BEFE204610EEF4
:1038A000107AFCF7E1FD044638460D46FCF7DCFDD6
:1038B000CDE902013046FCF7D7FD22462B46CDE983
:1038C00000012D4807F0F5FC2C4807F0F2FC2748D2
:1038D00007F019FB2548012107F02CFB10EE100A18
:1038E000FCF7C2FD02460B46254807F0E2FC1F48E4
:1038F00007F00DFB1D480A2107F01CFB10EE100A13
:10390000FCF7B2FD02460B461E4807F0D2FC1748F2
:1039100007F001FB1548072107F00CFB10EE100A19
:10392000FCF7A2FD02460B46174807F0C2FC0F4801
:1039300007F0F9FA0D48012107F0FCFA10EE100A21
:10394000FCF792FD02460B46104807F0B2FC074810
:1039500005B0BDE8F04007F0DABA05B0F0BD00BF31
:10396000041A00205BDF000078DF000090110020C7
:10397000581100202011002091DF0000D7DF000047
:1039800006E0000018E000003BE000005CE0000002
:103990002DE9F04F2DED028B3B4B1B788DB0002BAA
:1039A0006CD03A4E3A48DFF8F4B007F082FC394860
:1039B00007F07FFC3546384807F07BFC0FCD07AC9D
:1039C0000FC42B6823607069337E05908DF8183022
:1039D00005AC0DF11C09002514F8013B042B07D898
:1039E000DFE803F03C40444803002C4807F08BFA22
:1039F0002A48052107F09EFA28480521B0EE408AA2
:103A000007F0BAFADBED067A59F804ABF8EEE77A7C
:103A100010EE108A77EE887A013517EE900AFCF7DF
:103A200023FD064640460F46FCF71EFDCDE9020188
:103A300018EE100AFCF718FD3246CDE900013B46AE
:103A40001748514607F035FC052DC5D113480DB078
:103A5000BDEC028BBDE8F04F07F059BA0F4807F0F4
:103A600056FAC5E70D4807F056FAC1E70B4807F0CC
:103A700056FABDE7094807F056FAB9E70DB0BDECB4
:103A8000028BBDE8F08F00BF041A002058CE000062
:103A90007AE000009DE00000CDE000005811002019
:103AA00002E1000070B52DED028B484B1B78002B16
:103AB00000F088804648474C474E07F0FAFB4748DD
:103AC00007F0F7FB464807F0F4FB0A212046FFF712
:103AD00043FE204607F06DFA10EE100AFCF7C4FC16
:103AE00002460B463F4807F0E4FB3F4807F0E1FB86
:103AF00094ED087ADFED3D7A77EEC77A9FED3C7A58
:103B000087EE878A20460025B0EE480A07F057FA6C
:103B1000204607F05EFA10EE100AFCF7A5FC0246FC
:103B20000B46344807F0C5FB204607F052FAF7EE83
:103B3000007AC7EE807A17EE900AFCF795FC0246F1
:103B40000B462D4807F0B5FB2C4807F0B2FB0521CA
:103B5000204607F011FA10EE100AFCF785FC024629
:103B60000B46274807F0A5FB264807F0A2FB07EE07
:103B7000905AB8EEE77AD4ED087A47EE087A2046F4
:103B8000FDEEE77A17EE901A07F026FA012120469B
:103B900007F0F2F910EE100AFCF766FC0B4602463D
:103BA0002946304607F085FB05F5FA7540F6C41343
:103BB0009D42DCD1BDEC028B0648BDE8704000217F
:103BC00007F00ABABDEC028B70BD00BF041A0020DA
:103BD00021E1000020110020AAE2000044E10000E1
:103BE00074E10000A2E10000BEE100000050434784
:103BF00000007A4406E2000023E2000045E20000F3
:103C000062E2000084E20000F7B53E4B1B78002B17
:103C100076D03D483D4C07F04CFB3D4807F049FB52
:103C20003C4807F046FB394807F0C0F901463A48DE
:103C300007F03FFB00224021344807F0A6F9374A3D
:103C40003749002808BF1146364807F032FB2046A6
:103C500007F0ACF90146344807F02BFB334807F076
:103C600028FB2046B0EE040A07F0C5F9204607F00D
:103C7000C5F910EE100AFCF7F7FB02460B462C487C
:103C800007F017FB9FED2B7AD4ED077A67EE877A62
:103C90002046FDEEE77A17EE901A07F09DF92046D0
:103CA000012107F069F92046012110EE106A07F0A2
:103CB00099F9304610EE105AFCF7D6FB0646284616
:103CC0000F46FCF7D1FB3246CDE900013B461A48CE
:103CD00007F0EFFA194807F0ECFA204607F080F9F0
:103CE0000146174807F0E5FA2046002107F074F96D
:103CF00001228021204603B0BDE8F04007F045B91D
:103D000003B0F0BD041A0020E6E2000058110020C4
:103D100007E300002FE300003FE30000DFE20000C4
:103D2000D7E2000053E300006DE300007DE30000F4
:103D300096E300000000C842BBE30000DFE30000A0
:103D4000F5E300002DE9F04F3A4B1B7885B0002BCE
:103D50006DD0394807F0ADFA384807F0AAFA38486C
:103D600007F0A7FA08F03FFB4FF47A72A0FB0203BA
:103D700002FB0133C40BDFF8DCA044EA4344002615
:103D800008F031FB4FF47A77A0FB070307FB013102
:103D9000C30B43EA41431B1B4FEAD13142F210727D
:103DA00061F10001934271F1000105DB254805B086
:103DB000BDE8F04F07F07DBA08F015FBA0FB070344
:103DC00007FB0133C50B45EA4345AB1BB3F5FA7F4F
:103DD00029D31D48032107F0CFF81C48032110EE1A
:103DE000106A07F0C9F80321504610EE108A07F058
:103DF000C3F8304610EE109AFCF736FB06464846EC
:103E00000F46FCF731FBCDE902014046FCF72CFBE5
:103E1000A5EB040BCDE9000132460D483B4659465F
:103E200007F047FA2E46642007F0EBF8A8E705B044
:103E3000BDE8F08F041A00200EE4000033E4000017
:103E400065E40000BBE40000901100205811002040
:103E50009EE400002011002010B50446244807F01D
:103E600028FA204607F0BAF80146224807F021FA5E
:103E7000204607F0AEF810EE100AFCF7F5FA0246FD
:103E80000B461D4807F015FA204607F092F810EE91
:103E9000100AFCF7E9FA0B460246184807F009FA3F
:103EA000204607F089F8164A1649002808BF11462F
:103EB000154807F0FEF9204607F039F80146134887
:103EC00007F0F7F9204607F071F80146104807F0AF
:103ED000F0F92046012107F04FF810EE100AFCF728
:103EE000C3FABDE8104002460B460A4807F0E1B9A4
:103EF000E4E40000F0E40000FEE400000DE5000052
:103F0000E1E40000DDE4000022E5000032E500000D
:103F10003EE500004AE5000010B5364B1B78002B4B
:103F200066D03548354C07F0C4F9354807F0C1F97B
:103F3000344807F0BEF934492046FFF78DFF334877
:103F400007F0B7F920460521FFF706FC2E49204669
:103F5000FFF782FF2E4807F0ACF99FED2E7AD4EDE3
:103F6000077A67EE877A2046FDEEE77A17EE901A19
:103F700007F032F82046012106F0FEFF10EE100A8D
:103F8000FCF772FA02460B46234807F092F92348E1
:103F900007F08FF920460521FFF7DEFB1A4920467E
:103FA000FFF75AFF1E4807F084F99FED1E7AD4ED03
:103FB000077A67EE877A2046FDEEE77A17EE901AC9
:103FC00007F00AF82046012106F0D6FF10EE100A8D
:103FD000FCF74AFA02460B46134807F06AF92046F6
:103FE000002106F0F9FF2046BDE81040FFF7CABBEC
:103FF00010BD00BF041A002061E5000090110020F0
:1040000083E50000B2E5000093D40000C2E50000A3
:10401000E5E500000000FA430DE6000035E600008B
:1040200062E60000000048438FE6000008B51D4826
:1040300007F03FF91C4807F03CF91C4807F039F934
:10404000FFF7B8FB1A4B1B7823B91A48BDE80840A4
:1040500007F02FB9FFF706FC4FF4FA6006F0D1FF26
:10406000FFF796FC4FF4FA6006F0CBFFFFF71AFD5E
:104070004FF4FA6006F0C5FFFFF74EFF4FF4FA6009
:1040800006F0BFFFFFF7C0FD4FF4FA6006F0B9FF7E
:10409000FFF758FE034807F00CF9074807F009F945
:1040A0000248D3E7BBE60000FAE60000BCE60000E9
:1040B000041A002022E7000057E700002DE9F04F26
:1040C00091B08407009302F004030293C2F3C20389
:1040D00003F10103DDF86890039205460E4605934F
:1040E00040F0BA81041D30B1072909D86FF01B00D8
:1040F00011B0BDE8F08F01F00706341DC6F10806C7
:10410000009B4FF00008591E4FF0040A4FF0FF3398
:104110000193CDF810804746C34653460DB1009831
:1041200020600598002800F3E8809848009A8242B1
:1041300003D397488242C0F0E080039AA4EB050EB7
:1041400092074FEA9E0000F103810F2F00F2B18029
:10415000002D00F0058107F140020DEB020C019AE1
:104160000CF8200C0CF8102C049801300490E7E0B7
:104170007A285DD84B280ED8472859D829282DD819
:10418000252852D054D820287AD02338D0F1000BDB
:104190004BEB000B74E04C382E2849D8DFE800F0D8
:1041A0007048484848484848484848484B48484864
:1041B000484848484859484B4B595959704B6D48E5
:1041C0007048184B184848827F4B48484B487F003E
:1041D00000204FF0000B4FF0040A38E02A38C0B23C
:1041E000012202FA00F010EA0E0F49D110F0625CD1
:1041F0002FD110EA020B43D06046013C5444B4FB7B
:10420000FAF40AFB04F4002D61D0A3EB050CA444DE
:10421000B4453FF66BAF002868D1042B47D159F85D
:10422000043B2360043404232AE0019A013A0192FA
:104230004FF0000B24E011F8010C6C2834D111F878
:10424000023C00206C2B8346C5D14FF0080A534630
:10425000D3E709F1070929F007090734F9E802ABA8
:1042600024F0070435B106982044B0423FF63EAF33
:10427000C4E900AB08344FF0000B4FF0080A534676
:1042800011F8010F002878D0BBF1000F7FF470AF58
:104290002528F5D1019B013301934FF0010B4FF01D
:1042A000040AECE7584694E700208346A5E7082B6C
:1042B00002D06FF015001BE709F1070929F0070983
:1042C000B9EC027B84ED007B08340823D8E768B999
:1042D000042B02D109F10409A4E7082BE9D109F163
:1042E000070929F0070909F10809EDE705980138E0
:1042F000059059F8040B009010E7039A900720D519
:10430000A4EB050E4FEA9E004FF0010CBEF5007FB6
:10431000CFD20F2FCDD8F5B107F140020DEB020E31
:10432000C0B2019A0EF8200C0EF8102CBCF1000F50
:104330003FF41AAF60F07F000EF8200C08F101087E
:104340000137C5F10802043406924FF6DA7E97E78A
:104350004FF0000CDAE7BCF1000F01D00136EFE7B7
:10436000029A0236002AEBD10098CDE90631FCF71B
:10437000C5FBDDE906310644E2E7631BB3F5806F58
:1043800097D23DB9A6F10804E018B1E68CCB000045
:1043900010F30000029A28609B082B709DF81030E3
:1043A000C2B1EB7085F80280B8F1000F05D008A803
:1043B0000022C5F1010C97420ED1C5F101030DF1A8
:1043C00020094FF0000A01930DF1300B574512D12F
:1043D000601B8DE66B70E5E710F8013B190608D508
:1043E00004EB0C0EB64503F07F033FF67FAE04F8F6
:1043F000013B0132DFE7B8F1000F03D099F900204B
:10440000002A17DB029BD3B11AF80B2004F8012B0A
:104410000022019B98182044B0423FF667AE99F8FD
:10442000000004F8010B00990392204608F00EF8F2
:10443000039A14440AF1010A09F10109C6E799F83F
:10444000002055F822300093029B45F82230009856
:10445000FCF754FB421CDCE76FF00D0048E600BFA0
:104460002DE9F04F97B000AF90F802A0D7F880B0D8
:104470003B62CBF3C0030446FA62BB61894641B993
:10448000457800780AEB800020444D4517D8A0EB12
:104490000409E378FB61BAF1000F02D01BF0010FB1
:1044A00016D1FB6953BBFB6A1BB13A6A49462046E9
:1044B00098474D4628465C37BD46BDE8F08F461C00
:1044C0003046FCF71BFB0130304409F10109DCE701
:1044D000237862687A62FA6A9900796104EB830151
:1044E000002A40F000814D460E4601EB0A094FF0CC
:1044F00000084E454CD101EB0A0610E01BF0020FFC
:10450000D1D023789A007A6162687A62FA6A04EB01
:104510008301002A77D14D4601EB0A0690461BF035
:10452000050F0CBF02230123FB62FB6906EB430A64
:104530000BF00203BB625645BCD016F8021B16F8FE
:10454000013C54F82390AF4B994502D3AE4B9945AB
:1045500036D3BB69002B40D0786A06F073FE002882
:104560003BD0E9468AB06A46A84B53617B6AC2E9F0
:1045700006314FF400731384A54B42F8103FA54851
:1045800000234FF4125100F073FD023DCD46D2E7F7
:1045900016F8013BF96254F82300FCF7AFFAD7F89C
:1045A0008430F96A01304BB1D7F8883098453EBF66
:1045B000D7F8843023F8180008F10108054498E77B
:1045C000BB6923B1786A06F03DFE0028C9D11BF013
:1045D000010F05D1FB6AED1AADE7BB6A002BAAD02B
:1045E0004846FCF78BFAD7F8843053B1D7F88830B7
:1045F00098453FBFD7F88420431C22F8183008F1B3
:104600000108054497E7BAF1000F72D01BF00406C9
:1046100072D0D046002607F1480052463B61B9628D
:1046200007F014FFB96A3B6901EB0A02BA62FA6942
:10463000F9695200FA60BA6A02EB41023A610BF082
:104640000202BA603A69B96A8A4257D162787A62DC
:104650001BF0020F32440CBF4FEA580100211BF03F
:10466000010FD2B240F09F801BF0040F14BF4046F0
:104670000020BB616270A070E1703A6A7969FB6AE0
:1046800020469847051EFFF615AFBB6923707B6A6D
:104690006370FB69E37041463A6AFB6A84F802A0E2
:1046A00007F148009847B0F10008C0F2B5807B6977
:1046B0003A6AA9EB0A01C91AFB68C91AD7E90A03C1
:1046C00098470028C0F2AA80A84408EB00054FF0E4
:1046D000000B07F1380AB34567D300213A6AFB6A39
:1046E00008469847E6E656464FF0000807F13800BE
:1046F00093E75646D04697E7B04695E7BA6A12F870
:10470000021BBA6212F8015C3E4A54F8250090423E
:1047100002D33D4A90421ED3BA6932B1786A7B60B7
:1047200006F090FD7B6800288CD1BA6802BB08F1C6
:10473000280207F1300C08F10100944407F15802F7
:1047400052FA80F008F102080CF8101C5FFA88F8A1
:1047500000F8105C76E7BA693AB1786A7B6006F0D7
:1047600071FD7B6800287FF46DAF1BF0010F09D04D
:1047700006F1280207F13000711C161806F8205CBB
:10478000CEB25FE71BF0040F3FF45CAF08F12802E4
:1047900007F1300008F1010102EB000808F8105C95
:1047A0005FFA81F84EE7002063E71BF80A3087F8CC
:1047B000373054F82390D7F88430FBB133F81B809E
:1047C0003A6AFB6A012107F137009847002825DB88
:1047D0000544B8F1000F06D14846FCF78FF900F107
:1047E00001081FFA88F83A6AFB6A4146484698472A
:1047F000002813DB05440BF1010B6CE7D7F884802C
:10480000DEE700BF8CCB000010F3000097E700004C
:1048100004000001D4CD000045464BE6054649E6BC
:1048200030B587B00025CDE903010446009503A902
:1048300005480595FCF744FDDDE904309842B8BF12
:10484000255407B030BD00BF8FB20000F0B5094E4F
:10485000016802460A2700200B4601311C78355DAD
:104860006D0701D41360F0BD07FB0043A3F13000D6
:10487000F2E700BF6FF000002DE9F84F15469A46A9
:10488000D378234A12F803B06F2B81460F460BF002
:10489000030B2BD026D8582B0CBF10260A26DDF888
:1048A00028803246002348463946FCF70DF9092A8C
:1048B00008F1FF38D4B21ED83034B145E4B277F1F4
:1048C000000788F8004001D3D04511D82B789B060B
:1048D00005D5082E15D1AB7843F00803AB704046E0
:1048E000BDE8F88F03F0F703702BD5E70826D6E76D
:1048F00081460F46D5E7BBF1010F0CBF3734573463
:10490000DBE7102EEBD1AB7843F01003E6E700BFF6
:104910006FF000002DE9F047058B0446280790460C
:1049200011D4022905F0070540F0CC80204606F09E
:1049300088FF78B10138218B042811D8DFE800F016
:10494000C2106D85950001290CBF45F0100545F09A
:104950002005258388F31188BFF36F8FBDE8F087AA
:1049600001F0070AAA4500F0A5800027B9463E4697
:10497000A368002B00F0BC8041F00801218388F37C
:104980001188BFF36F8FA168002900F0BA800D680D
:10499000002900F0B680D1F8048033465246204604
:1049A000C047002D76D02B6829461D46F0E701F060
:1049B00007035A1F012A1BD8002221F00701062BEA
:1049C000276889B2C4E9002209D13B4603E0628B23
:1049D000013262831B68002BF9D141F0020121836F
:1049E000204606F02EFF00287AD041F0200176E024
:1049F000042B0AD121F0070189B22183204606F059
:104A000020FF10B141F020012183218B01F0070A22
:104A1000AA454FD00027B946AAE7236921F007012C
:104A200041F00601062DD3F8009021832DD1B9F174
:104A3000000F3FD041F00801218388F31188BFF3B4
:104A40006F8F3A492046C84729E021F007012369C2
:104A500041F0040189B2042DD3F804902183E6D0FB
:104A600000273E464FF0040A82E721F00701236940
:104A700041F0050189B2052DD3F808902183D6D0E5
:104A800000273E464FF0050A72E700273E464FF0EA
:104A9000060A6DE72B4687E7B9F1000FD1D1EFF396
:104AA0001188202383F31288BFF36F8F238B23F0A9
:104AB00008032383258BEA062ED525F010032383D4
:104AC00005F007056669218B002EBFF670AF002345
:104AD0002768C4E9003321F0070141F00101218377
:104AE000218B01F0070AAA454FF000097FF440AF7F
:104AF000002F9CD041F00801218388F31188BFF377
:104B00006F8F002FC8D03D68394633465246204645
:104B100006F0C3FE2F46F4E7AB067FF51BAF25F08A
:104B20002003238305F0070500E700BFC7B8000096
:104B30002DE9F047DFF85880044607464FF0010999
:104B400014B93846BDE8F08794FAA4F5B5FA85F5AE
:104B500009FA05F32E0108EB05156FEA030A24EAAA
:104B600003042B7B002BEBD058F806301B694BB9A4
:104B70004644042273682846196807EA0A0700F0C9
:104B800063FADDE7284698470028D9D1F0E700BF4F
:104B900024CE000030B51049104889B0002207F03B
:104BA00024FC0F4D0F4900220023CDE906230024E9
:104BB0000E23CDE90334CDE901440B4B00944FF4AF
:104BC0005072284603F090FD0849284607F0FFFA86
:104BD000204609B030BD00BFF14B0000780D002029
:104BE000B0080020801A0020F54E000051E80000B7
:104BF000014803F0F1BC00BFA00800202DE9F047F8
:104C000080461F480F4606F02DFF0646002830D08C
:104C100000252846BDE8F087237B6BB12368DB685D
:104C20000BB12046984723681B69D3B963680422F7
:104C30001968204600F008FA013610344C45EBD3D1
:104C4000B8F1000FE5D0002DE2D02846FFF770FF45
:104C50000546002FF7D000214FF4A47004F000F8AF
:104C6000F1E7204698470028E0D00AFA06F31D43F2
:104C7000E2E7044CDFF8109005464FF0010ADDE74B
:104C8000D811002024CE000034CE0000014B53F890
:104C9000200070478CCF000008B5034608462BB1B2
:104CA000044A136000F07EFC002008BD6FF0150080
:104CB000FBE700BFC004002010B5044C237813B9F3
:104CC000034803F089FC0123237010BD051A00205E
:104CD000A008002010B504460B4806F0C3FE5CB1E6
:104CE000BFF35B8F094B53E8001F013943E8001203
:104CF000002AF8D1BFF35B8F054807F082FB054817
:104D0000BDE8104003F068BCD0110020D411002091
:104D1000780D0020A00800200020064BBFF35B8F19
:104D2000014653E8000F43E80012002AF9D1BFF30F
:104D30005B8F7047D011002070B5FFF7EDFF084C76
:104D4000084E0546B44200D370BD63685B792BB151
:104D500023685B6813B12946204698471034F1E771
:104D600024CE000034CE000010B5044C0449204687
:104D700006F003FC034B1C6010BD00BFB007002011
:104D800078CF0000C8110020084A094808B5002360
:104D90001370084A1360084A4FF400411360FFF78C
:104DA0007BFFBDE80840FFF7DFBF00BF061A002009
:104DB00061BA0000D0110020D41100200146002269
:104DC0000148002306F0FABBB0070020014806F0B6
:104DD00090BC00BFB0070020024B0146186806F0E7
:104DE000DCBC00BFC8110020014806F011BD00BFA7
:104DF000B007002070B5284B187800284BD0FFF77B
:104E0000E5FF054690B1BFF35B8F244B53E8001FCD
:104E1000013943E80012002AF8D1BFF35B8F204C20
:104E2000204EB4422DD32846FFF7D6FF1E4B1F4C11
:104E30001B68002B19DD07F0D6FA4FF47A72A0FB3D
:104E4000020302FB0131C30BD4E9002043EA4143D2
:104E50009B1A4FEAD13140F2E93261EB00019342F3
:104E600071F1000101D3FFF767FFD4E9003213F5B8
:104E70007A7342F10002C4E90032BDE87040FFF7E6
:104E8000B3BF63685B7923B1236829461B6820465A
:104E900098471034C5E770BD051A0020D4110020D2
:104EA00024CE000034CE0000D0110020700D002070
:104EB00070B50D4D297861B90120FFF79FFE0B4CAD
:104EC0000B4EB44206D3FFF795FF0028FBD1012318
:104ED0002B7070BD63685B791BB1236820469B68AB
:104EE00098471034EDE700BF061A002024CE0000DA
:104EF00034CE000000212DE9F0470846FFF77EFE82
:104F0000044648B340F267684FF0000903F0C6FE5C
:104F10001A4B186030B11A4B1B68092B02DD194877
:104F200003F05AFB184FDFF85CA0002544B120467F
:104F3000FFF7FEFD044618B94FF0FF384FF0FF3978
:104F4000FFF758FF064628B9B5B942464B465046CA
:104F500003F066FB3546E9E74FF0FF384FF0FF39C5
:104F6000D4E72B689B691BB100221146284698475D
:104F70001035BD42F5D3E8E7044DFAE7CC11002027
:104F8000D4110020A008002034CE000024CE000060
:104F900013B5184806F066FD174B1B7873B1EFF395
:104FA0001184202383F31288BFF36F8FFFF722FF52
:104FB00084F31188BFF36F8F02B010BD0F4B1B68D5
:104FC000002BF9D050B900220023CDE900230C4872
:104FD0004FF40042002304F0B7F8EDE70928EBD1C5
:104FE000074807F00EFA074802B0BDE8104003F08A
:104FF000F3BA00BFD4110020061A0020CC11002003
:10500000780D0020A008002010B5064B1B68044650
:1050100098472146A060044806F04CFBBDE81040CC
:10502000FFF7B6BFC0040020B0070020044A054BBC
:105030009B1AB1EBD30F34BF52F8310000207047F8
:10504000D4CD000024CE0000084BC31A10B41B11AD
:1050500044680133237143689A7143681960436857
:1050600001225A715DF8044BFFF726BE24CE0000E2
:105070002DE9F04F8FB004AFC1F34A28B8600D4658
:1050800091467B600C0DB8F1000F63D0002607F14C
:1050900014034FF0040B4FF00A0AC7F80C80C7E95D
:1050A00007667E620193CDF808B0CDF800A007F145
:1050B0001C03F96832464846FFF7D2F9B0F5006F95
:1050C00003461CD36C468AB0D9F8041004AB2648BA
:1050D000C3E9050140F2FF71D9611A464FF400712E
:1050E0001984224B42F8103F214833464FF41251A5
:1050F000FFF7BEFFA5462C37BD46BDE8F08FC0F3D5
:105100000A0804F11700184420F0070080083B60EB
:10511000FFF754FE68F35325044690B13B68154AE7
:10512000C7E9083600F1100107F11403F961CDE970
:1051300000A3CDF808B0F96807F11C034846FFF753
:105140008FF968F353257B68B9682A46204606F034
:10515000BFFCD0E704F1170020F007008008FFF73C
:105160002DFE0446EDE700BF66E8000004000001E4
:10517000E4CD0000A5BA00002DE9F04F87B0DDE9CD
:105180001279DDE9105A0446039193469846BFB15F
:10519000CDF800903B46524610210020CDF81490E7
:1051A000FEF78CFFB0F5006F06460AD3184A19487F
:1051B00040F2FF73022107B0BDE8F04F06F0E1BCFA
:1051C0003E4605F11700304420F0070004F00704C4
:1051D0008008FFF7F3FD0BF0070BE40044EA8B14A3
:1051E00044EA462444EA0554054640B13FB1CDF8AF
:1051F00000903B46524631461030FEF75FFF039960
:1052000043462246284607B0BDE8F04F06F060BC92
:10521000A5E80000E4CD0000406820B1034BC01AAF
:1052200040F3CF0070474FF0FF307047D4CD0000FF
:105230000EB403B503AB014653F8042B04480193A5
:1052400006F0C4FC02B05DF804EB03B0704700BF89
:10525000DBBB0000CA0605D48B064CBF02490349DC
:10526000FFF7E6BF704700BFDEE80000DDE80000A2
:105270002DE9F04F8BB09A46169B06939DF854B0DB
:10528000179B0593189B199E049304460D46904660
:10529000BBF1000F00F09E8006F00103089306F0BA
:1052A0000803079306F48073099306F0F9FB06F0F0
:1052B0000209024600283BD08F492046FFF7B8FF7D
:1052C0000746B9F1000F08D016F0440F32D18B49D0
:1052D0002A462046FFF7ACFF0744089B53B1884B92
:1052E000884953F82B20884B2046002A08BF1A46CD
:1052F000FFF79EFF099B002B48D0079B002B62D134
:10530000B8F1000F64D0814942462046FFF790FF74
:105310000546069B3D44002B6BD1049B002B71D1AD
:10532000F30700F1E38031462046FFF793FFD7E013
:105330000746C6E7764B18680028CDD0754B4FF46A
:105340007A791B68B5FBF3F54FF46161B5FBF0F3B7
:1053500000FB135509FB05F54FF03C0CB3FBF1F2D4
:1053600001FB1231B5FBF0FEB1FBFCF300FB1E5557
:105370000CFB131109FB05F50091B5FBF0F566492F
:10538000CDE901E52046FFF753FFA5E7079BEBB109
:10539000624B634953F82B202046FFF749FF05462F
:1053A000B8F1000F05D0594942462046FFF740FFAB
:1053B0000544BAF1000FACD05A4952462046FFF7D7
:1053C00037FF0544A5E74FF0000AE1E7079DE7E74F
:1053D00045469EE7BAF1010F069B06D1002B65D129
:1053E000049B002B7CD000250CE0002BF8D04E480D
:1053F0005DE04E48069B4E49224605F0F2FE049BB6
:10540000002B69D0DFF83C81DFF83C91049F3146E6
:10541000102F204628BF1027FFF71CFF4FF0000A6F
:10542000554546DC059B49461A782046FFF700FFA4
:105430004FF0010A1AF0070F03D141462046FFF74B
:10544000F7FE57453CD9059B494613F80A202046EC
:10545000FFF7EEFE0AF1010ABAF1100FEAD1354961
:1054600020464FF0000AFFF7E3FE5246059B9A5C88
:10547000314B995C11F0970F08BF2E222F4920461F
:10548000FFF7D6FE0AF1010ABAF1100F1DD01AF08B
:10549000070F03D141462046FFF7CAFE5745524643
:1054A000E4D841462046FFF7C3FEEBE71F485D46C0
:1054B000A0E741462046FFF7BBFE0AF1010AAFE72D
:1054C0001F492046FFF7B4FEC4E7059B3B44059304
:1054D000049BDB1B049399D1BBF1000F7FF420AF39
:1054E00020460BB0BDE8F04F06F063BB064A054905
:1054F0002046FFF79DFE16E7E5E80000E9E800001A
:105500009CCF00007FD20000E0E800000EE9000020
:10551000E0110020DC110020F2E80000B0CF000014
:1055200012E9000018E9000011BC0000DBBB00001C
:10553000CDBB000027E900006FF0000029E9000062
:1055400023E9000025E900001DE9000073B542F2DF
:105550000F738B4228BF0B4605680F4A044605218E
:10556000684605F0B3FE63680C495B6806460B228B
:10557000284606F010FB63683246694628465B6899
:1055800006F009FB636806495B681B22284606F0A3
:1055900002FB02B070BD00BFA7D2000048E90000C6
:1055A0002CE90000074A00210123904206D8064A50
:1055B00001B901231360054B1860704740085B0078
:1055C0000121F2E740420F00DC110020E011002031
:1055D000014B01221A707047071A0020014B00206E
:1055E00019607047F81100200148FFF7AFBF00BFF6
:1055F000E0CF000010B5064B18680C46FFF746FBDD
:1056000021460346BDE8104002480F22184700BF5C
:10561000F8110020E0CF0000F8B5094D094B0A4E03
:10562000D5E9004701221A700CB92C60F8BD21465B
:1056300030463A4600F01EF8241A0644F4E700BF4C
:10564000EC110020081A0020091A002010B9074B9D
:1056500018707047064B1B781BB141F2883006F07A
:1056600008BDA420002103F0FBBA00BF071A0020E8
:10567000081A00202DE9F843DFF878901C4F804687
:105680000E46042499F8005095B902F0EFFC284624
:105690003246414602F09CFC054602F0F1FCE5B1C1
:1056A00001233B7099F8003073B93046BDE8F883A8
:1056B00032464146002002F08BFC0546EFE72046CB
:1056C000FFF7C4FF651E2C46002002F0C5FC002831
:1056D000EBD03B78002BF2D1E7E73B78002BE4D00E
:1056E000013C2046FFF7B2FF3B78002BCAD1DCE734
:1056F000071A0020081A0020014B036000207047A1
:10570000F0CF000008B5044805F0D3FDBDE808401F
:10571000024805F0CEBD00BFA3E90000D8E90000B3
:10572000014803F0ADBD00BFF0CF000038B504461E
:1057300018B90F4B0F485B6898476168B1F5683F2F
:1057400010D0B1F5680F0DD00B4DA9420AD011F45D
:105750006861206807D00146084806F0E7FC00238E
:105760002360656038BD142206F07EFEF9E700BFB5
:105770007805002006EA00002C5F5CA9FC160020DA
:1057800008B520B34368B3F5683F10D10122036820
:10579000BFF35B8F53E8001F002903D143E80020CB
:1057A0000028F7D1BFF35B8F0DD1002008BD094A57
:1057B00093420AD000684FF0FF324FF0FF3302F0FF
:1057C00057FE0028F1D00448F0E70448EEE76FF4F4
:1057D000E040EBE72C5F5CA9E98FFFFFEA8FFFFF5A
:1057E00008B5D8B14368B3F5683F10D1002203680B
:1057F000BFF35B8F53E8001F012903D143E800206A
:105800000028F7D1BFF35B8F0BD1002008BD074AFA
:10581000934208D0006802F0A3FEF6E76FF4E04080
:10582000F4E70348F2E70348F0E700BF2C5F5CA908
:10583000E98FFFFFEA8FFFFF10B5044618B91D4B33
:105840001D485B6898476368B3F5683F2FD0B3F590
:10585000680F2CD0194A934219D1236803BB18480A
:105860004FF0FF324FF0FF33214602F0D3FD08B96D
:1058700023681BB90F4B13485B68984720681422B4
:10588000002106F0F1FD4FF46863636008E0B3F5B2
:10589000683F0DD83A2B03D040F6BA629342DED16E
:1058A000206806F07BFC636843F03A03636010BD38
:1058B000054AF3E77805002006EA00002C5F5CA9A2
:1058C000FC1600202CEA00003A00003A08B5064910
:1058D00006484023142206F01BFCBDE8084004499A
:1058E000044803F03FBD00BFFC110020FC1600205F
:1058F000F8CF00000CD000002DE9F84F804600AF33
:105900000C46002965D0E9468AB0D1E90012A368A7
:105910006D4639482E464FF0050AC5E90501C5E92F
:10592000072346F810AF3548324600234FF4215183
:10593000FFF79EFBCD46D4E903126369AD463048BC
:10594000C5F810A0C5E90501C5E907232B480023C8
:1059500032464FF42151FFF78BFBCD46E369294ACC
:105960002648DFF8B0B0012106F00BF926460025E5
:105970004FF00A0AE9468EB0D6E908E0D6E90A13E4
:105980006A46C2F81CE005F1010EC2E908E0A81C55
:10599000C2E90A01E91CC2E905B5C2E90C1342F8E3
:1059A00010AF1648002345F240010435FFF760FBB5
:1059B000102DCD4606F11006DCD1236E124A0F4899
:1059C000012106F0DEF8A369104A0C48012106F017
:1059D000D8F8B8F1010F07D1EFF305830C4A074857
:1059E000103B414606F0CDF82146404602F05EFBF2
:1059F000BD46BDE8F88F00BF59EA000004CE0000A4
:105A000088EA0000B7EA000009EB000018EB00008C
:105A100046EB0000C6EA000030BFFFF7FDBF00BF45
:105A2000074A936893F90E10002907DB92699342A5
:105A30001FBF044A536843F080535360704700BF50
:105A4000E817002000ED00E070B5294C06460D4631
:105A50002848294906F02BF9A36AD9043CD52548E2
:105A6000264906F024F91720A36A1A0504D521480F
:105A7000234906F01CF918201D4CA36A9B0512D57A
:105A80001C48204906F013F9A36BA26A100409D53B
:105A90001D4A1848012106F074F81EB1A36A23F4C8
:105AA0000043A3621920124CA36A590504D511487A
:105AB000164906F0FCF81A20A36ADA050ED50D483F
:105AC000134906F0F4F81B20094A936A43F47F4314
:105AD000936200232B7070BD1620C5E7A36A9B0458
